{
  "_format": "hh-sol-artifact-1",
  "contractName": "EvidenceLocker",
  "sourceName": "contracts/EvidenceLocker.sol",
  "abi": [
    {
      "anonymous": false,
      "inputs": [
        {
          "indexed": false,
          "internalType": "string",
          "name": "fileHash",
          "type": "string"
        },
        {
          "indexed": false,
          "internalType": "string",
          "name": "ipfsCID",
          "type": "string"
        },
        {
          "indexed": true,
          "internalType": "address",
          "name": "uploadedBy",
          "type": "address"
        },
        {
          "indexed": false,
          "internalType": "uint256",
          "name": "timestamp",
          "type": "uint256"
        }
      ],
      "name": "EvidenceStored",
      "type": "event"
    },
    {
      "anonymous": false,
      "inputs": [
        {
          "indexed": false,
          "internalType": "string",
          "name": "fileHash",
          "type": "string"
        },
        {
          "indexed": false,
          "internalType": "bool",
          "name": "isValid",
          "type": "bool"
        },
        {
          "indexed": true,
          "internalType": "address",
          "name": "verifiedBy",
          "type": "address"
        },
        {
          "indexed": false,
          "internalType": "uint256",
          "name": "timestamp",
          "type": "uint256"
        }
      ],
      "name": "EvidenceVerified",
      "type": "event"
    },
    {
      "inputs": [],
      "name": "getAllHashes",
      "outputs": [
        {
          "internalType": "string[]",
          "name": "",
          "type": "string[]"
        }
      ],
      "stateMutability": "view",
      "type": "function"
    },
    {
      "inputs": [
        {
          "internalType": "string",
          "name": "_fileHash",
          "type": "string"
        }
      ],
      "name": "getEvidence",
      "outputs": [
        {
          "internalType": "string",
          "name": "fileName",
          "type": "string"
        },
        {
          "internalType": "string",
          "name": "ipfsCID",
          "type": "string"
        },
        {
          "internalType": "address",
          "name": "uploadedBy",
          "type": "address"
        },
        {
          "internalType": "uint256",
          "name": "timestamp",
          "type": "uint256"
        },
        {
          "internalType": "string",
          "name": "description",
          "type": "string"
        }
      ],
      "stateMutability": "view",
      "type": "function"
    },
    {
      "inputs": [],
      "name": "getEvidenceCount",
      "outputs": [
        {
          "internalType": "uint256",
          "name": "",
          "type": "uint256"
        }
      ],
      "stateMutability": "view",
      "type": "function"
    },
    {
      "inputs": [
        {
          "internalType": "string",
          "name": "_fileName",
          "type": "string"
        },
        {
          "internalType": "string",
          "name": "_fileHash",
          "type": "string"
        },
        {
          "internalType": "string",
          "name": "_ipfsCID",
          "type": "string"
        },
        {
          "internalType": "string",
          "name": "_description",
          "type": "string"
        }
      ],
      "name": "storeEvidence",
      "outputs": [],
      "stateMutability": "nonpayable",
      "type": "function"
    },
    {
      "inputs": [
        {
          "internalType": "string",
          "name": "_fileHash",
          "type": "string"
        }
      ],
      "name": "verifyEvidence",
      "outputs": [
        {
          "internalType": "bool",
          "name": "",
          "type": "bool"
        }
      ],
      "stateMutability": "nonpayable",
      "type": "function"
    }
  ],
  "bytecode": "0x608060405234801561001057600080fd5b5061124d806100206000396000f3fe608060405234801561001057600080fd5b50600436106100575760003560e01c80636f13f95a1461005c5780638dcc11ef1461008c578063b16c6ee7146100a8578063b8d44487146100dc578063fe99f742146100fa575b600080fd5b610076600480360381019061007191906109ab565b610118565b6040516100839190610a0f565b60405180910390f35b6100a660048036038101906100a19190610a2a565b6101a7565b005b6100c260048036038101906100bd91906109ab565b6103d9565b6040516100d3959493929190610bda565b60405180910390f35b6100e461076b565b6040516100f19190610c42565b60405180910390f35b610102610778565b60405161010f9190610d69565b60405180910390f35b60008060008360405161012b9190610dc7565b908152602001604051809103902060060160009054906101000a900460ff1690503373ffffffffffffffffffffffffffffffffffffffff167f813b9b0755bb4accf2ff007ebea58f70c3e041d722498181926f92294500ee0184834260405161019693929190610dde565b60405180910390a280915050919050565b6000836040516101b79190610dc7565b908152602001604051809103902060060160009054906101000a900460ff1615610216576040517f08c379a000000000000000000000000000000000000000000000000000000000815260040161020d90610e68565b60405180910390fd5b6040518060e001604052808581526020018481526020018381526020013373ffffffffffffffffffffffffffffffffffffffff168152602001428152602001828152602001600115158152506000846040516102729190610dc7565b908152602001604051809103902060008201518160000190816102959190611094565b5060208201518160010190816102ab9190611094565b5060408201518160020190816102c19190611094565b5060608201518160030160006101000a81548173ffffffffffffffffffffffffffffffffffffffff021916908373ffffffffffffffffffffffffffffffffffffffff1602179055506080820151816004015560a08201518160050190816103289190611094565b5060c08201518160060160006101000a81548160ff0219169083151502179055509050506001839080600181540180825580915050600190039060005260206000200160009091909190915090816103809190611094565b503373ffffffffffffffffffffffffffffffffffffffff167f94f6e9bb96481c6865680f687755925c7a69b54b9b99c6229080c0c2850e36e88484426040516103cb93929190611166565b60405180910390a250505050565b60608060008060606000866040516103f19190610dc7565b908152602001604051809103902060060160009054906101000a900460ff1661044f576040517f08c379a0000000000000000000000000000000000000000000000000000000008152600401610446906111f7565b60405180910390fd5b600080876040516104609190610dc7565b90815260200160405180910390206040518060e001604052908160008201805461048990610eb7565b80601f01602080910402602001604051908101604052809291908181526020018280546104b590610eb7565b80156105025780601f106104d757610100808354040283529160200191610502565b820191906000526020600020905b8154815290600101906020018083116104e557829003601f168201915b5050505050815260200160018201805461051b90610eb7565b80601f016020809104026020016040519081016040528092919081815260200182805461054790610eb7565b80156105945780601f1061056957610100808354040283529160200191610594565b820191906000526020600020905b81548152906001019060200180831161057757829003601f168201915b505050505081526020016002820180546105ad90610eb7565b80601f01602080910402602001604051908101604052809291908181526020018280546105d990610eb7565b80156106265780601f106105fb57610100808354040283529160200191610626565b820191906000526020600020905b81548152906001019060200180831161060957829003601f168201915b505050505081526020016003820160009054906101000a900473ffffffffffffffffffffffffffffffffffffffff1673ffffffffffffffffffffffffffffffffffffffff1673ffffffffffffffffffffffffffffffffffffffff1681526020016004820154815260200160058201805461069f90610eb7565b80601f01602080910402602001604051908101604052809291908181526020018280546106cb90610eb7565b80156107185780601f106106ed57610100808354040283529160200191610718565b820191906000526020600020905b8154815290600101906020018083116106fb57829003601f168201915b505050505081526020016006820160009054906101000a900460ff161515151581525050905080600001518160400151826060015183608001518460a00151955095509550955095505091939590929450565b6000600180549050905090565b60606001805480602002602001604051908101604052809291908181526020016000905b828210156108485783829060005260206000200180546107bb90610eb7565b80601f01602080910402602001604051908101604052809291908181526020018280546107e790610eb7565b80156108345780601f1061080957610100808354040283529160200191610834565b820191906000526020600020905b81548152906001019060200180831161081757829003601f168201915b50505050508152602001906001019061079c565b50505050905090565b6000604051905090565b600080fd5b600080fd5b600080fd5b600080fd5b6000601f19601f8301169050919050565b7f4e487b7100000000000000000000000000000000000000000000000000000000600052604160045260246000fd5b6108b88261086f565b810181811067ffffffffffffffff821117156108d7576108d6610880565b5b80604052505050565b60006108ea610851565b90506108f682826108af565b919050565b600067ffffffffffffffff82111561091657610915610880565b5b61091f8261086f565b9050602081019050919050565b82818337600083830152505050565b600061094e610949846108fb565b6108e0565b90508281526020810184848401111561096a5761096961086a565b5b61097584828561092c565b509392505050565b600082601f83011261099257610991610865565b5b81356109a284826020860161093b565b91505092915050565b6000602082840312156109c1576109c061085b565b5b600082013567ffffffffffffffff8111156109df576109de610860565b5b6109eb8482850161097d565b91505092915050565b60008115159050919050565b610a09816109f4565b82525050565b6000602082019050610a246000830184610a00565b92915050565b60008060008060808587031215610a4457610a4361085b565b5b600085013567ffffffffffffffff811115610a6257610a61610860565b5b610a6e8782880161097d565b945050602085013567ffffffffffffffff811115610a8f57610a8e610860565b5b610a9b8782880161097d565b935050604085013567ffffffffffffffff811115610abc57610abb610860565b5b610ac88782880161097d565b925050606085013567ffffffffffffffff811115610ae957610ae8610860565b5b610af58782880161097d565b91505092959194509250565b600081519050919050565b600082825260208201905092915050565b60005b83811015610b3b578082015181840152602081019050610b20565b60008484015250505050565b6000610b5282610b01565b610b5c8185610b0c565b9350610b6c818560208601610b1d565b610b758161086f565b840191505092915050565b600073ffffffffffffffffffffffffffffffffffffffff82169050919050565b6000610bab82610b80565b9050919050565b610bbb81610ba0565b82525050565b6000819050919050565b610bd481610bc1565b82525050565b600060a0820190508181036000830152610bf48188610b47565b90508181036020830152610c088187610b47565b9050610c176040830186610bb2565b610c246060830185610bcb565b8181036080830152610c368184610b47565b90509695505050505050565b6000602082019050610c576000830184610bcb565b92915050565b600081519050919050565b600082825260208201905092915050565b6000819050602082019050919050565b600082825260208201905092915050565b6000610ca582610b01565b610caf8185610c89565b9350610cbf818560208601610b1d565b610cc88161086f565b840191505092915050565b6000610cdf8383610c9a565b905092915050565b6000602082019050919050565b6000610cff82610c5d565b610d098185610c68565b935083602082028501610d1b85610c79565b8060005b85811015610d575784840389528151610d388582610cd3565b9450610d4383610ce7565b925060208a01995050600181019050610d1f565b50829750879550505050505092915050565b60006020820190508181036000830152610d838184610cf4565b905092915050565b600081905092915050565b6000610da182610b01565b610dab8185610d8b565b9350610dbb818560208601610b1d565b80840191505092915050565b6000610dd38284610d96565b915081905092915050565b60006060820190508181036000830152610df88186610b47565b9050610e076020830185610a00565b610e146040830184610bcb565b949350505050565b7f45766964656e636520616c726561647920657869737473210000000000000000600082015250565b6000610e52601883610b0c565b9150610e5d82610e1c565b602082019050919050565b60006020820190508181036000830152610e8181610e45565b9050919050565b7f4e487b7100000000000000000000000000000000000000000000000000000000600052602260045260246000fd5b60006002820490506001821680610ecf57607f821691505b602082108103610ee257610ee1610e88565b5b50919050565b60008190508160005260206000209050919050565b60006020601f8301049050919050565b600082821b905092915050565b600060088302610f4a7fffffffffffffffffffffffffffffffffffffffffffffffffffffffffffffffff82610f0d565b610f548683610f0d565b95508019841693508086168417925050509392505050565b6000819050919050565b6000610f91610f8c610f8784610bc1565b610f6c565b610bc1565b9050919050565b6000819050919050565b610fab83610f76565b610fbf610fb782610f98565b848454610f1a565b825550505050565b600090565b610fd4610fc7565b610fdf818484610fa2565b505050565b5b8181101561100357610ff8600082610fcc565b600181019050610fe5565b5050565b601f8211156110485761101981610ee8565b61102284610efd565b81016020851015611031578190505b61104561103d85610efd565b830182610fe4565b50505b505050565b600082821c905092915050565b600061106b6000198460080261104d565b1980831691505092915050565b6000611084838361105a565b9150826002028217905092915050565b61109d82610b01565b67ffffffffffffffff8111156110b6576110b5610880565b5b6110c08254610eb7565b6110cb828285611007565b600060209050601f8311600181146110fe57600084156110ec578287015190505b6110f68582611078565b86555061115e565b601f19841661110c86610ee8565b60005b828110156111345784890151825560018201915060208501945060208101905061110f565b86831015611151578489015161114d601f89168261105a565b8355505b6001600288020188555050505b505050505050565b600060608201905081810360008301526111808186610b47565b905081810360208301526111948185610b47565b90506111a36040830184610bcb565b949350505050565b7f45766964656e6365206e6f7420666f756e642100000000000000000000000000600082015250565b60006111e1601383610b0c565b91506111ec826111ab565b602082019050919050565b60006020820190508181036000830152611210816111d4565b905091905056fea2646970667358221220f5fbac1243321f66cb755859633ca5b30dfd5e8d5f1eb45d4528fbc541e6f38164736f6c63430008140033",
  "linkReferences": {},
  "deployedLinkReferences": {}
}