{
  "_format": "hh-sol-artifact-1",
  "contractName": "EvidenceLocker",
  "sourceName": "contracts/EvidenceLocker.sol",
  "abi": [
    {
      "inputs": [
        {
          "internalType": "address",
          "name": "_evidenceTokenAddress",
          "type": "address"
        }
      ],
      "stateMutability": "nonpayable",
      "type": "constructor"
    },
    {
      "inputs": [],
      "name": "AccessControlBadConfirmation",
      "type": "error"
    },
    {
      "inputs": [
        {
          "internalType": "address",
          "name": "account",
          "type": "address"
        },
        {
          "internalType": "bytes32",
          "name": "neededRole",
          "type": "bytes32"
        }
      ],
      "name": "AccessControlUnauthorizedAccount",
      "type": "error"
    },
    {
      "inputs": [
        {
          "internalType": "address",
          "name": "authority",
          "type": "address"
        },
        {
          "internalType": "string",
          "name": "fileHash",
          "type": "string"
        }
      ],
      "name": "AlreadyVoted",
      "type": "error"
    },
    {
      "inputs": [
        {
          "internalType": "string",
          "name": "fileHash",
          "type": "string"
        }
      ],
      "name": "EvidenceAlreadyExists",
      "type": "error"
    },
    {
      "inputs": [
        {
          "internalType": "string",
          "name": "fileHash",
          "type": "string"
        }
      ],
      "name": "EvidenceNotFound",
      "type": "error"
    },
    {
      "inputs": [],
      "name": "InvalidConsensusThreshold",
      "type": "error"
    },
    {
      "inputs": [
        {
          "internalType": "address",
          "name": "caller",
          "type": "address"
        }
      ],
      "name": "NotAuthorized",
      "type": "error"
    },
    {
      "anonymous": false,
      "inputs": [
        {
          "indexed": false,
          "internalType": "uint256",
          "name": "newApprovals",
          "type": "uint256"
        },
        {
          "indexed": false,
          "internalType": "uint256",
          "name": "newRejections",
          "type": "uint256"
        }
      ],
      "name": "ConsensusThresholdUpdated",
      "type": "event"
    },
    {
      "anonymous": false,
      "inputs": [
        {
          "indexed": false,
          "internalType": "string",
          "name": "fileHash",
          "type": "string"
        },
        {
          "indexed": false,
          "internalType": "uint256",
          "name": "rejectionCount",
          "type": "uint256"
        },
        {
          "indexed": false,
          "internalType": "string",
          "name": "reason",
          "type": "string"
        },
        {
          "indexed": false,
          "internalType": "uint256",
          "name": "timestamp",
          "type": "uint256"
        }
      ],
      "name": "EvidenceRejected",
      "type": "event"
    },
    {
      "anonymous": false,
      "inputs": [
        {
          "indexed": false,
          "internalType": "string",
          "name": "fileHash",
          "type": "string"
        },
        {
          "indexed": false,
          "internalType": "string",
          "name": "ipfsCID",
          "type": "string"
        },
        {
          "indexed": true,
          "internalType": "address",
          "name": "uploadedBy",
          "type": "address"
        },
        {
          "indexed": false,
          "internalType": "uint256",
          "name": "timestamp",
          "type": "uint256"
        }
      ],
      "name": "EvidenceStored",
      "type": "event"
    },
    {
      "anonymous": false,
      "inputs": [
        {
          "indexed": false,
          "internalType": "string",
          "name": "fileHash",
          "type": "string"
        },
        {
          "indexed": true,
          "internalType": "address",
          "name": "uploadedBy",
          "type": "address"
        },
        {
          "indexed": false,
          "internalType": "uint256",
          "name": "timestamp",
          "type": "uint256"
        }
      ],
      "name": "EvidenceSubmitted",
      "type": "event"
    },
    {
      "anonymous": false,
      "inputs": [
        {
          "indexed": false,
          "internalType": "string",
          "name": "fileHash",
          "type": "string"
        },
        {
          "indexed": false,
          "internalType": "uint256",
          "name": "approvalCount",
          "type": "uint256"
        },
        {
          "indexed": false,
          "internalType": "uint256",
          "name": "timestamp",
          "type": "uint256"
        }
      ],
      "name": "EvidenceVerified",
      "type": "event"
    },
    {
      "anonymous": false,
      "inputs": [
        {
          "indexed": true,
          "internalType": "bytes32",
          "name": "role",
          "type": "bytes32"
        },
        {
          "indexed": true,
          "internalType": "bytes32",
          "name": "previousAdminRole",
          "type": "bytes32"
        },
        {
          "indexed": true,
          "internalType": "bytes32",
          "name": "newAdminRole",
          "type": "bytes32"
        }
      ],
      "name": "RoleAdminChanged",
      "type": "event"
    },
    {
      "anonymous": false,
      "inputs": [
        {
          "indexed": true,
          "internalType": "bytes32",
          "name": "role",
          "type": "bytes32"
        },
        {
          "indexed": true,
          "internalType": "address",
          "name": "account",
          "type": "address"
        },
        {
          "indexed": true,
          "internalType": "address",
          "name": "sender",
          "type": "address"
        }
      ],
      "name": "RoleGranted",
      "type": "event"
    },
    {
      "anonymous": false,
      "inputs": [
        {
          "indexed": true,
          "internalType": "bytes32",
          "name": "role",
          "type": "bytes32"
        },
        {
          "indexed": true,
          "internalType": "address",
          "name": "account",
          "type": "address"
        },
        {
          "indexed": true,
          "internalType": "address",
          "name": "sender",
          "type": "address"
        }
      ],
      "name": "RoleRevoked",
      "type": "event"
    },
    {
      "anonymous": false,
      "inputs": [
        {
          "indexed": false,
          "internalType": "string",
          "name": "fileHash",
          "type": "string"
        },
        {
          "indexed": true,
          "internalType": "address",
          "name": "authority",
          "type": "address"
        },
        {
          "indexed": false,
          "internalType": "bool",
          "name": "approved",
          "type": "bool"
        },
        {
          "indexed": false,
          "internalType": "uint256",
          "name": "timestamp",
          "type": "uint256"
        }
      ],
      "name": "VoteCast",
      "type": "event"
    },
    {
      "inputs": [],
      "name": "AUTHORITY_ROLE",
      "outputs": [
        {
          "internalType": "bytes32",
          "name": "",
          "type": "bytes32"
        }
      ],
      "stateMutability": "view",
      "type": "function"
    },
    {
      "inputs": [],
      "name": "DEFAULT_ADMIN_ROLE",
      "outputs": [
        {
          "internalType": "bytes32",
          "name": "",
          "type": "bytes32"
        }
      ],
      "stateMutability": "view",
      "type": "function"
    },
    {
      "inputs": [],
      "name": "UPLOADER_ROLE",
      "outputs": [
        {
          "internalType": "bytes32",
          "name": "",
          "type": "bytes32"
        }
      ],
      "stateMutability": "view",
      "type": "function"
    },
    {
      "inputs": [
        {
          "internalType": "string",
          "name": "_fileHash",
          "type": "string"
        },
        {
          "internalType": "string",
          "name": "_authorityId",
          "type": "string"
        },
        {
          "internalType": "bool",
          "name": "_approve",
          "type": "bool"
        },
        {
          "internalType": "string",
          "name": "_reason",
          "type": "string"
        }
      ],
      "name": "castVote",
      "outputs": [],
      "stateMutability": "nonpayable",
      "type": "function"
    },
    {
      "inputs": [],
      "name": "evidenceToken",
      "outputs": [
        {
          "internalType": "contract IEvidenceToken",
          "name": "",
          "type": "address"
        }
      ],
      "stateMutability": "view",
      "type": "function"
    },
    {
      "inputs": [
        {
          "internalType": "string",
          "name": "_fileHash",
          "type": "string"
        },
        {
          "internalType": "bool",
          "name": "_finalVerdict",
          "type": "bool"
        }
      ],
      "name": "finalizeConsensus",
      "outputs": [],
      "stateMutability": "nonpayable",
      "type": "function"
    },
    {
      "inputs": [],
      "name": "getAllPendingEvidence",
      "outputs": [
        {
          "internalType": "string[]",
          "name": "",
          "type": "string[]"
        }
      ],
      "stateMutability": "view",
      "type": "function"
    },
    {
      "inputs": [
        {
          "internalType": "string",
          "name": "_fileHash",
          "type": "string"
        }
      ],
      "name": "getEvidence",
      "outputs": [
        {
          "internalType": "string",
          "name": "fileName",
          "type": "string"
        },
        {
          "internalType": "string",
          "name": "ipfsCID",
          "type": "string"
        },
        {
          "internalType": "address",
          "name": "uploadedBy",
          "type": "address"
        },
        {
          "internalType": "uint256",
          "name": "timestamp",
          "type": "uint256"
        },
        {
          "internalType": "string",
          "name": "description",
          "type": "string"
        }
      ],
      "stateMutability": "view",
      "type": "function"
    },
    {
      "inputs": [],
      "name": "getEvidenceCount",
      "outputs": [
        {
          "internalType": "uint256",
          "name": "",
          "type": "uint256"
        }
      ],
      "stateMutability": "view",
      "type": "function"
    },
    {
      "inputs": [
        {
          "internalType": "uint256",
          "name": "start",
          "type": "uint256"
        },
        {
          "internalType": "uint256",
          "name": "count",
          "type": "uint256"
        }
      ],
      "name": "getHashesPaginated",
      "outputs": [
        {
          "internalType": "string[]",
          "name": "",
          "type": "string[]"
        }
      ],
      "stateMutability": "view",
      "type": "function"
    },
    {
      "inputs": [
        {
          "internalType": "bytes32",
          "name": "role",
          "type": "bytes32"
        }
      ],
      "name": "getRoleAdmin",
      "outputs": [
        {
          "internalType": "bytes32",
          "name": "",
          "type": "bytes32"
        }
      ],
      "stateMutability": "view",
      "type": "function"
    },
    {
      "inputs": [
        {
          "internalType": "string",
          "name": "_fileHash",
          "type": "string"
        }
      ],
      "name": "getVotingStatus",
      "outputs": [
        {
          "internalType": "uint256",
          "name": "approvalCount",
          "type": "uint256"
        },
        {
          "internalType": "uint256",
          "name": "rejectionCount",
          "type": "uint256"
        },
        {
          "internalType": "enum EvidenceLocker.EvidenceStatus",
          "name": "status",
          "type": "uint8"
        },
        {
          "internalType": "string",
          "name": "rejectionReason",
          "type": "string"
        },
        {
          "internalType": "address[]",
          "name": "approvedBy",
          "type": "address[]"
        },
        {
          "internalType": "address[]",
          "name": "rejectedBy",
          "type": "address[]"
        }
      ],
      "stateMutability": "view",
      "type": "function"
    },
    {
      "inputs": [
        {
          "internalType": "address",
          "name": "account",
          "type": "address"
        }
      ],
      "name": "grantAuthorityRole",
      "outputs": [],
      "stateMutability": "nonpayable",
      "type": "function"
    },
    {
      "inputs": [
        {
          "internalType": "bytes32",
          "name": "role",
          "type": "bytes32"
        },
        {
          "internalType": "address",
          "name": "account",
          "type": "address"
        }
      ],
      "name": "grantRole",
      "outputs": [],
      "stateMutability": "nonpayable",
      "type": "function"
    },
    {
      "inputs": [
        {
          "internalType": "bytes32",
          "name": "role",
          "type": "bytes32"
        },
        {
          "internalType": "address",
          "name": "account",
          "type": "address"
        }
      ],
      "name": "hasRole",
      "outputs": [
        {
          "internalType": "bool",
          "name": "",
          "type": "bool"
        }
      ],
      "stateMutability": "view",
      "type": "function"
    },
    {
      "inputs": [
        {
          "internalType": "string",
          "name": "_fileHash",
          "type": "string"
        },
        {
          "internalType": "string",
          "name": "_authorityId",
          "type": "string"
        }
      ],
      "name": "hasVoted",
      "outputs": [
        {
          "internalType": "bool",
          "name": "",
          "type": "bool"
        }
      ],
      "stateMutability": "view",
      "type": "function"
    },
    {
      "inputs": [
        {
          "internalType": "bytes32",
          "name": "role",
          "type": "bytes32"
        },
        {
          "internalType": "address",
          "name": "callerConfirmation",
          "type": "address"
        }
      ],
      "name": "renounceRole",
      "outputs": [],
      "stateMutability": "nonpayable",
      "type": "function"
    },
    {
      "inputs": [
        {
          "internalType": "address",
          "name": "account",
          "type": "address"
        }
      ],
      "name": "revokeAuthorityRole",
      "outputs": [],
      "stateMutability": "nonpayable",
      "type": "function"
    },
    {
      "inputs": [
        {
          "internalType": "bytes32",
          "name": "role",
          "type": "bytes32"
        },
        {
          "internalType": "address",
          "name": "account",
          "type": "address"
        }
      ],
      "name": "revokeRole",
      "outputs": [],
      "stateMutability": "nonpayable",
      "type": "function"
    },
    {
      "inputs": [
        {
          "internalType": "string",
          "name": "_fileName",
          "type": "string"
        },
        {
          "internalType": "string",
          "name": "_fileHash",
          "type": "string"
        },
        {
          "internalType": "string",
          "name": "_ipfsCID",
          "type": "string"
        },
        {
          "internalType": "string",
          "name": "_description",
          "type": "string"
        }
      ],
      "name": "storeEvidence",
      "outputs": [],
      "stateMutability": "nonpayable",
      "type": "function"
    },
    {
      "inputs": [
        {
          "internalType": "bytes4",
          "name": "interfaceId",
          "type": "bytes4"
        }
      ],
      "name": "supportsInterface",
      "outputs": [
        {
          "internalType": "bool",
          "name": "",
          "type": "bool"
        }
      ],
      "stateMutability": "view",
      "type": "function"
    },
    {
      "inputs": [
        {
          "internalType": "string",
          "name": "_fileHash",
          "type": "string"
        }
      ],
      "name": "verifyEvidence",
      "outputs": [
        {
          "internalType": "bool",
          "name": "",
          "type": "bool"
        }
      ],
      "stateMutability": "view",
      "type": "function"
    }
  ],
  "bytecode": "0x60806040523480156200001157600080fd5b506040516200373c3803806200373c833981810160405281019062000037919062000274565b6200004c6000801b336200009560201b60201c565b5080600160006101000a81548173ffffffffffffffffffffffffffffffffffffffff021916908373ffffffffffffffffffffffffffffffffffffffff16021790555050620002a6565b6000620000a983836200019860201b60201c565b6200018d57600160008085815260200190815260200160002060000160008473ffffffffffffffffffffffffffffffffffffffff1673ffffffffffffffffffffffffffffffffffffffff16815260200190815260200160002060006101000a81548160ff021916908315150217905550620001296200020260201b60201c565b73ffffffffffffffffffffffffffffffffffffffff168273ffffffffffffffffffffffffffffffffffffffff16847f2f8788117e7eff1d82e926ec794901d17c78024a50270940304540a733656f0d60405160405180910390a46001905062000192565b600090505b92915050565b600080600084815260200190815260200160002060000160008373ffffffffffffffffffffffffffffffffffffffff1673ffffffffffffffffffffffffffffffffffffffff16815260200190815260200160002060009054906101000a900460ff16905092915050565b600033905090565b600080fd5b600073ffffffffffffffffffffffffffffffffffffffff82169050919050565b60006200023c826200020f565b9050919050565b6200024e816200022f565b81146200025a57600080fd5b50565b6000815190506200026e8162000243565b92915050565b6000602082840312156200028d576200028c6200020a565b5b60006200029d848285016200025d565b91505092915050565b61348680620002b66000396000f3fe608060405234801561001057600080fd5b50600436106101425760003560e01c80636f13f95a116100b8578063a323f3d31161007c578063a323f3d31461038e578063b16c6ee7146103be578063b8d44487146103f2578063d32db21814610410578063d547741f1461042c578063d5fd7d631461044857610142565b80636f13f95a146102d65780637e34df8c146103065780638dcc11ef1461032457806391d1485414610340578063a217fddf1461037057610142565b806336568abe1161010a57806336568abe146102165780634a3fba0e146102325780634a71d9121461025057806360bc2f611461026c57806361cc07661461028857806366a038bb146102a657610142565b806301ffc9a71461014757806318cd5879146101775780631c645c41146101ac578063248a9ca3146101ca5780632f2ff15d146101fa575b600080fd5b610161600480360381019061015c919061230e565b610464565b60405161016e9190612356565b60405180910390f35b610191600480360381019061018c91906124b7565b6104de565b6040516101a3969594939291906126ff565b60405180910390f35b6101b4610775565b6040516101c191906127d4565b60405180910390f35b6101e460048036038101906101df9190612825565b61079b565b6040516101f19190612861565b60405180910390f35b610214600480360381019061020f91906128a8565b6107ba565b005b610230600480360381019061022b91906128a8565b6107dc565b005b61023a610857565b6040516102479190612861565b60405180910390f35b61026a60048036038101906102659190612914565b61087b565b005b610286600480360381019061028191906129cf565b610c4d565b005b610290610de9565b60405161029d9190612861565b60405180910390f35b6102c060048036038101906102bb9190612a2b565b610e0d565b6040516102cd9190612356565b60405180910390f35b6102f060048036038101906102eb91906124b7565b610e60565b6040516102fd9190612356565b60405180910390f35b61030e610eec565b60405161031b9190612baf565b60405180910390f35b61033e60048036038101906103399190612bd1565b611219565b005b61035a600480360381019061035591906128a8565b611646565b6040516103679190612356565b60405180910390f35b6103786116b0565b6040516103859190612861565b60405180910390f35b6103a860048036038101906103a39190612cd4565b6116b7565b6040516103b59190612baf565b60405180910390f35b6103d860048036038101906103d391906124b7565b611849565b6040516103e9959493929190612d23565b60405180910390f35b6103fa611e9c565b6040516104079190612d8b565b60405180910390f35b61042a60048036038101906104259190612da6565b611ea9565b005b610446600480360381019061044191906128a8565b611ee4565b005b610462600480360381019061045d9190612da6565b611f06565b005b60007f7965db0b000000000000000000000000000000000000000000000000000000007bffffffffffffffffffffffffffffffffffffffffffffffffffffffff1916827bffffffffffffffffffffffffffffffffffffffffffffffffffffffff191614806104d757506104d682611f41565b5b9050919050565b600080600060608060606000878051906020012090506002600082815260200190815260200160002060050160059054906101000a900460ff1661055957876040517fe9d832820000000000000000000000000000000000000000000000000000000081526004016105509190612dd3565b60405180910390fd5b60006002600083815260200190815260200160002090508060050160009054906101000a900461ffff168160050160029054906101000a900461ffff168260050160049054906101000a900460ff168360070184600801856009018561ffff1695508461ffff1694508280546105ce90612e24565b80601f01602080910402602001604051908101604052809291908181526020018280546105fa90612e24565b80156106475780601f1061061c57610100808354040283529160200191610647565b820191906000526020600020905b81548152906001019060200180831161062a57829003601f168201915b50505050509250818054806020026020016040519081016040528092919081815260200182805480156106cf57602002820191906000526020600020905b8160009054906101000a900473ffffffffffffffffffffffffffffffffffffffff1673ffffffffffffffffffffffffffffffffffffffff1681526020019060010190808311610685575b505050505091508080548060200260200160405190810160405280929190818152602001828054801561075757602002820191906000526020600020905b8160009054906101000a900473ffffffffffffffffffffffffffffffffffffffff1673ffffffffffffffffffffffffffffffffffffffff168152602001906001019080831161070d575b50505050509050975097509750975097509750505091939550919395565b600160009054906101000a900473ffffffffffffffffffffffffffffffffffffffff1681565b6000806000838152602001908152602001600020600101549050919050565b6107c38261079b565b6107cc81611fab565b6107d68383611fbf565b50505050565b6107e46120b0565b73ffffffffffffffffffffffffffffffffffffffff168173ffffffffffffffffffffffffffffffffffffffff1614610848576040517f6697b23200000000000000000000000000000000000000000000000000000000815260040160405180910390fd5b61085282826120b8565b505050565b7fd565e3fc066df348a5cbc05a8d6323e00552838041cea2d84cc59876ba37735d81565b7fd565e3fc066df348a5cbc05a8d6323e00552838041cea2d84cc59876ba37735d6108a581611fab565b6000858051906020012090506002600082815260200190815260200160002060050160059054906101000a900460ff1661091657856040517fe9d8328200000000000000000000000000000000000000000000000000000000815260040161090d9190612dd3565b60405180910390fd5b60046000828152602001908152602001600020856040516109379190612e91565b908152602001604051809103902060009054906101000a900460ff16156109975733866040517fc232886300000000000000000000000000000000000000000000000000000000815260040161098e929190612ea8565b60405180910390fd5b6000600260008381526020019081526020016000209050600160046000848152602001908152602001600020876040516109d19190612e91565b908152602001604051809103902060006101000a81548160ff0219169083151502179055508415610a9d5780600801339080600181540180825580915050600190039060005260206000200160009091909190916101000a81548173ffffffffffffffffffffffffffffffffffffffff021916908373ffffffffffffffffffffffffffffffffffffffff16021790555080600501600081819054906101000a900461ffff168092919060010191906101000a81548161ffff021916908361ffff16021790555050610b4c565b80600901339080600181540180825580915050600190039060005260206000200160009091909190916101000a81548173ffffffffffffffffffffffffffffffffffffffff021916908373ffffffffffffffffffffffffffffffffffffffff16021790555083816007019081610b13919061307a565b5080600501600281819054906101000a900461ffff168092919060010191906101000a81548161ffff021916908361ffff160217905550505b428160040160106101000a8154816fffffffffffffffffffffffffffffffff02191690836fffffffffffffffffffffffffffffffff1602179055503373ffffffffffffffffffffffffffffffffffffffff167f8f939c0e8da82099bc9be68995da582362fa8d3032227846326c305b0f2d2e37888742604051610bd19392919061314c565b60405180910390a260006003811115610bed57610bec612519565b5b8160050160049054906101000a900460ff166003811115610c1157610c10612519565b5b03610c445760018160050160046101000a81548160ff02191690836003811115610c3e57610c3d612519565b5b02179055505b50505050505050565b6000801b610c5a81611fab565b6000838051906020012090506002600082815260200190815260200160002060050160059054906101000a900460ff16610ccb57836040517fe9d83282000000000000000000000000000000000000000000000000000000008152600401610cc29190612dd3565b60405180910390fd5b60006002600083815260200190815260200160002090508315610d675760028160050160046101000a81548160ff02191690836003811115610d1057610d0f612519565b5b02179055507f82af08a251062fb301974b7ba1af9929393e54f47a77ce262239cee29bdb6466858260050160009054906101000a900461ffff1642604051610d5a939291906131c9565b60405180910390a1610de2565b60038160050160046101000a81548160ff02191690836003811115610d8f57610d8e612519565b5b02179055507f6eb0270f26abecfd931edc16a4e9ff7eb4f7074d3718899a4fe9d411256ceb3d858260050160029054906101000a900461ffff1642604051610dd993929190613253565b60405180910390a15b5050505050565b7f922390b27f65d828a1f7695b2eaae33fd0be87496792afddba1d25446a8fcb9181565b600080838051906020012090506004600082815260200190815260200160002083604051610e3b9190612e91565b908152602001604051809103902060009054906101000a900460ff1691505092915050565b600080828051906020012090506002600082815260200190815260200160002060050160059054906101000a900460ff168015610ee4575060026003811115610eac57610eab612519565b5b6002600083815260200190815260200160002060050160049054906101000a900460ff166003811115610ee257610ee1612519565b5b145b915050919050565b60607fd565e3fc066df348a5cbc05a8d6323e00552838041cea2d84cc59876ba37735d610f1881611fab565b6000805b60038054905081101561100b57600060038281548110610f3f57610f3e6132a4565b5b9060005260206000200154905060006003811115610f6057610f5f612519565b5b6002600083815260200190815260200160002060050160049054906101000a900460ff166003811115610f9657610f95612519565b5b1480610fe9575060016003811115610fb157610fb0612519565b5b6002600083815260200190815260200160002060050160049054906101000a900460ff166003811115610fe757610fe6612519565b5b145b15610ffd578280610ff990613302565b9350505b818060010192505050610f1c565b5060008167ffffffffffffffff8111156110285761102761238c565b5b60405190808252806020026020018201604052801561105b57816020015b60608152602001906001900390816110465790505b5090506000805b60038054905081101561120e57600060038281548110611085576110846132a4565b5b90600052602060002001549050600060038111156110a6576110a5612519565b5b6002600083815260200190815260200160002060050160049054906101000a900460ff1660038111156110dc576110db612519565b5b148061112f5750600160038111156110f7576110f6612519565b5b6002600083815260200190815260200160002060050160049054906101000a900460ff16600381111561112d5761112c612519565b5b145b156112005760026000828152602001908152602001600020600101805461115590612e24565b80601f016020809104026020016040519081016040528092919081815260200182805461118190612e24565b80156111ce5780601f106111a3576101008083540402835291602001916111ce565b820191906000526020600020905b8154815290600101906020018083116111b157829003601f168201915b50505050508484815181106111e6576111e56132a4565b5b602002602001018190525082806111fc90613302565b9350505b818060010192505050611062565b508194505050505090565b6000838051906020012090506002600082815260200190815260200160002060050160059054906101000a900460ff161561128b57836040517f81378a760000000000000000000000000000000000000000000000000000000081526004016112829190612dd3565b60405180910390fd5b6060604051806101c001604052808781526020018681526020018581526020013373ffffffffffffffffffffffffffffffffffffffff168152602001426fffffffffffffffffffffffffffffffff168152602001426fffffffffffffffffffffffffffffffff168152602001600061ffff168152602001600061ffff1681526020016000600381111561132157611320612519565b5b81526020016001151581526020018481526020016040518060200160405280600081525081526020018281526020018281525060026000848152602001908152602001600020600082015181600001908161137c919061307a565b506020820151816001019081611392919061307a565b5060408201518160020190816113a8919061307a565b5060608201518160030160006101000a81548173ffffffffffffffffffffffffffffffffffffffff021916908373ffffffffffffffffffffffffffffffffffffffff16021790555060808201518160040160006101000a8154816fffffffffffffffffffffffffffffffff02191690836fffffffffffffffffffffffffffffffff16021790555060a08201518160040160106101000a8154816fffffffffffffffffffffffffffffffff02191690836fffffffffffffffffffffffffffffffff16021790555060c08201518160050160006101000a81548161ffff021916908361ffff16021790555060e08201518160050160026101000a81548161ffff021916908361ffff1602179055506101008201518160050160046101000a81548160ff021916908360038111156114e0576114df612519565b5b02179055506101208201518160050160056101000a81548160ff02191690831515021790555061014082015181600601908161151c919061307a565b50610160820151816007019081611533919061307a565b506101808201518160080190805190602001906115519291906121fb565b506101a082015181600901908051906020019061156f9291906121fb565b5090505060038290806001815401808255809150506001900390600052602060002001600090919091909150553373ffffffffffffffffffffffffffffffffffffffff167f94f6e9bb96481c6865680f687755925c7a69b54b9b99c6229080c0c2850e36e88686426040516115e69392919061334a565b60405180910390a23373ffffffffffffffffffffffffffffffffffffffff167f4487f3398c99757094c9ac1dad87a3648d90241c54f4b1afae94e705e26a8889864260405161163692919061338f565b60405180910390a2505050505050565b600080600084815260200190815260200160002060000160008373ffffffffffffffffffffffffffffffffffffffff1673ffffffffffffffffffffffffffffffffffffffff16815260200190815260200160002060009054906101000a900460ff16905092915050565b6000801b81565b6060600082846116c791906133bf565b90506003805490508111156116df5760038054905090505b600084826116ed91906133f3565b67ffffffffffffffff8111156117065761170561238c565b5b60405190808252806020026020018201604052801561173957816020015b60608152602001906001900390816117245790505b50905060008590505b8281101561183d576002600060038381548110611762576117616132a4565b5b90600052602060002001548152602001908152602001600020600101805461178990612e24565b80601f01602080910402602001604051908101604052809291908181526020018280546117b590612e24565b80156118025780601f106117d757610100808354040283529160200191611802565b820191906000526020600020905b8154815290600101906020018083116117e557829003601f168201915b505050505082878361181491906133f3565b81518110611825576118246132a4565b5b60200260200101819052508080600101915050611742565b50809250505092915050565b60608060008060606000868051906020012090506002600082815260200190815260200160002060050160059054906101000a900460ff166118c257866040517fe9d832820000000000000000000000000000000000000000000000000000000081526004016118b99190612dd3565b60405180910390fd5b600060026000838152602001908152602001600020604051806101c00160405290816000820180546118f390612e24565b80601f016020809104026020016040519081016040528092919081815260200182805461191f90612e24565b801561196c5780601f106119415761010080835404028352916020019161196c565b820191906000526020600020905b81548152906001019060200180831161194f57829003601f168201915b5050505050815260200160018201805461198590612e24565b80601f01602080910402602001604051908101604052809291908181526020018280546119b190612e24565b80156119fe5780601f106119d3576101008083540402835291602001916119fe565b820191906000526020600020905b8154815290600101906020018083116119e157829003601f168201915b50505050508152602001600282018054611a1790612e24565b80601f0160208091040260200160405190810160405280929190818152602001828054611a4390612e24565b8015611a905780601f10611a6557610100808354040283529160200191611a90565b820191906000526020600020905b815481529060010190602001808311611a7357829003601f168201915b505050505081526020016003820160009054906101000a900473ffffffffffffffffffffffffffffffffffffffff1673ffffffffffffffffffffffffffffffffffffffff1673ffffffffffffffffffffffffffffffffffffffff1681526020016004820160009054906101000a90046fffffffffffffffffffffffffffffffff166fffffffffffffffffffffffffffffffff166fffffffffffffffffffffffffffffffff1681526020016004820160109054906101000a90046fffffffffffffffffffffffffffffffff166fffffffffffffffffffffffffffffffff166fffffffffffffffffffffffffffffffff1681526020016005820160009054906101000a900461ffff1661ffff1661ffff1681526020016005820160029054906101000a900461ffff1661ffff1661ffff1681526020016005820160049054906101000a900460ff166003811115611be857611be7612519565b5b6003811115611bfa57611bf9612519565b5b81526020016005820160059054906101000a900460ff16151515158152602001600682018054611c2990612e24565b80601f0160208091040260200160405190810160405280929190818152602001828054611c5590612e24565b8015611ca25780601f10611c7757610100808354040283529160200191611ca2565b820191906000526020600020905b815481529060010190602001808311611c8557829003601f168201915b50505050508152602001600782018054611cbb90612e24565b80601f0160208091040260200160405190810160405280929190818152602001828054611ce790612e24565b8015611d345780601f10611d0957610100808354040283529160200191611d34565b820191906000526020600020905b815481529060010190602001808311611d1757829003601f168201915b5050505050815260200160088201805480602002602001604051908101604052809291908181526020018280548015611dc257602002820191906000526020600020905b8160009054906101000a900473ffffffffffffffffffffffffffffffffffffffff1673ffffffffffffffffffffffffffffffffffffffff1681526020019060010190808311611d78575b5050505050815260200160098201805480602002602001604051908101604052809291908181526020018280548015611e5057602002820191906000526020600020905b8160009054906101000a900473ffffffffffffffffffffffffffffffffffffffff1673ffffffffffffffffffffffffffffffffffffffff1681526020019060010190808311611e06575b505050505081525050905080600001518160400151826060015183608001516fffffffffffffffffffffffffffffffff1684610140015196509650965096509650505091939590929450565b6000600380549050905090565b6000801b611eb681611fab565b611ee07fd565e3fc066df348a5cbc05a8d6323e00552838041cea2d84cc59876ba37735d836107ba565b5050565b611eed8261079b565b611ef681611fab565b611f0083836120b8565b50505050565b6000801b611f1381611fab565b611f3d7fd565e3fc066df348a5cbc05a8d6323e00552838041cea2d84cc59876ba37735d83611ee4565b5050565b60007f01ffc9a7000000000000000000000000000000000000000000000000000000007bffffffffffffffffffffffffffffffffffffffffffffffffffffffff1916827bffffffffffffffffffffffffffffffffffffffffffffffffffffffff1916149050919050565b611fbc81611fb76120b0565b6121aa565b50565b6000611fcb8383611646565b6120a557600160008085815260200190815260200160002060000160008473ffffffffffffffffffffffffffffffffffffffff1673ffffffffffffffffffffffffffffffffffffffff16815260200190815260200160002060006101000a81548160ff0219169083151502179055506120426120b0565b73ffffffffffffffffffffffffffffffffffffffff168273ffffffffffffffffffffffffffffffffffffffff16847f2f8788117e7eff1d82e926ec794901d17c78024a50270940304540a733656f0d60405160405180910390a4600190506120aa565b600090505b92915050565b600033905090565b60006120c48383611646565b1561219f57600080600085815260200190815260200160002060000160008473ffffffffffffffffffffffffffffffffffffffff1673ffffffffffffffffffffffffffffffffffffffff16815260200190815260200160002060006101000a81548160ff02191690831515021790555061213c6120b0565b73ffffffffffffffffffffffffffffffffffffffff168273ffffffffffffffffffffffffffffffffffffffff16847ff6391f5c32d9c69d2a47ea670b442974b53935d1edc7fd64eb21e047a839171b60405160405180910390a4600190506121a4565b600090505b92915050565b6121b48282611646565b6121f75780826040517fe2517d3f0000000000000000000000000000000000000000000000000000000081526004016121ee929190613427565b60405180910390fd5b5050565b828054828255906000526020600020908101928215612274579160200282015b828111156122735782518260006101000a81548173ffffffffffffffffffffffffffffffffffffffff021916908373ffffffffffffffffffffffffffffffffffffffff1602179055509160200191906001019061221b565b5b5090506122819190612285565b5090565b5b8082111561229e576000816000905550600101612286565b5090565b6000604051905090565b600080fd5b600080fd5b60007fffffffff0000000000000000000000000000000000000000000000000000000082169050919050565b6122eb816122b6565b81146122f657600080fd5b50565b600081359050612308816122e2565b92915050565b600060208284031215612324576123236122ac565b5b6000612332848285016122f9565b91505092915050565b60008115159050919050565b6123508161233b565b82525050565b600060208201905061236b6000830184612347565b92915050565b600080fd5b600080fd5b6000601f19601f8301169050919050565b7f4e487b7100000000000000000000000000000000000000000000000000000000600052604160045260246000fd5b6123c48261237b565b810181811067ffffffffffffffff821117156123e3576123e261238c565b5b80604052505050565b60006123f66122a2565b905061240282826123bb565b919050565b600067ffffffffffffffff8211156124225761242161238c565b5b61242b8261237b565b9050602081019050919050565b82818337600083830152505050565b600061245a61245584612407565b6123ec565b90508281526020810184848401111561247657612475612376565b5b612481848285612438565b509392505050565b600082601f83011261249e5761249d612371565b5b81356124ae848260208601612447565b91505092915050565b6000602082840312156124cd576124cc6122ac565b5b600082013567ffffffffffffffff8111156124eb576124ea6122b1565b5b6124f784828501612489565b91505092915050565b6000819050919050565b61251381612500565b82525050565b7f4e487b7100000000000000000000000000000000000000000000000000000000600052602160045260246000fd5b6004811061255957612558612519565b5b50565b600081905061256a82612548565b919050565b600061257a8261255c565b9050919050565b61258a8161256f565b82525050565b600081519050919050565b600082825260208201905092915050565b60005b838110156125ca5780820151818401526020810190506125af565b60008484015250505050565b60006125e182612590565b6125eb818561259b565b93506125fb8185602086016125ac565b6126048161237b565b840191505092915050565b600081519050919050565b600082825260208201905092915050565b6000819050602082019050919050565b600073ffffffffffffffffffffffffffffffffffffffff82169050919050565b60006126668261263b565b9050919050565b6126768161265b565b82525050565b6000612688838361266d565b60208301905092915050565b6000602082019050919050565b60006126ac8261260f565b6126b6818561261a565b93506126c18361262b565b8060005b838110156126f25781516126d9888261267c565b97506126e483612694565b9250506001810190506126c5565b5085935050505092915050565b600060c082019050612714600083018961250a565b612721602083018861250a565b61272e6040830187612581565b818103606083015261274081866125d6565b9050818103608083015261275481856126a1565b905081810360a083015261276881846126a1565b9050979650505050505050565b6000819050919050565b600061279a6127956127908461263b565b612775565b61263b565b9050919050565b60006127ac8261277f565b9050919050565b60006127be826127a1565b9050919050565b6127ce816127b3565b82525050565b60006020820190506127e960008301846127c5565b92915050565b6000819050919050565b612802816127ef565b811461280d57600080fd5b50565b60008135905061281f816127f9565b92915050565b60006020828403121561283b5761283a6122ac565b5b600061284984828501612810565b91505092915050565b61285b816127ef565b82525050565b60006020820190506128766000830184612852565b92915050565b6128858161265b565b811461289057600080fd5b50565b6000813590506128a28161287c565b92915050565b600080604083850312156128bf576128be6122ac565b5b60006128cd85828601612810565b92505060206128de85828601612893565b9150509250929050565b6128f18161233b565b81146128fc57600080fd5b50565b60008135905061290e816128e8565b92915050565b6000806000806080858703121561292e5761292d6122ac565b5b600085013567ffffffffffffffff81111561294c5761294b6122b1565b5b61295887828801612489565b945050602085013567ffffffffffffffff811115612979576129786122b1565b5b61298587828801612489565b9350506040612996878288016128ff565b925050606085013567ffffffffffffffff8111156129b7576129b66122b1565b5b6129c387828801612489565b91505092959194509250565b600080604083850312156129e6576129e56122ac565b5b600083013567ffffffffffffffff811115612a0457612a036122b1565b5b612a1085828601612489565b9250506020612a21858286016128ff565b9150509250929050565b60008060408385031215612a4257612a416122ac565b5b600083013567ffffffffffffffff811115612a6057612a5f6122b1565b5b612a6c85828601612489565b925050602083013567ffffffffffffffff811115612a8d57612a8c6122b1565b5b612a9985828601612489565b9150509250929050565b600081519050919050565b600082825260208201905092915050565b6000819050602082019050919050565b600082825260208201905092915050565b6000612aeb82612590565b612af58185612acf565b9350612b058185602086016125ac565b612b0e8161237b565b840191505092915050565b6000612b258383612ae0565b905092915050565b6000602082019050919050565b6000612b4582612aa3565b612b4f8185612aae565b935083602082028501612b6185612abf565b8060005b85811015612b9d5784840389528151612b7e8582612b19565b9450612b8983612b2d565b925060208a01995050600181019050612b65565b50829750879550505050505092915050565b60006020820190508181036000830152612bc98184612b3a565b905092915050565b60008060008060808587031215612beb57612bea6122ac565b5b600085013567ffffffffffffffff811115612c0957612c086122b1565b5b612c1587828801612489565b945050602085013567ffffffffffffffff811115612c3657612c356122b1565b5b612c4287828801612489565b935050604085013567ffffffffffffffff811115612c6357612c626122b1565b5b612c6f87828801612489565b925050606085013567ffffffffffffffff811115612c9057612c8f6122b1565b5b612c9c87828801612489565b91505092959194509250565b612cb181612500565b8114612cbc57600080fd5b50565b600081359050612cce81612ca8565b92915050565b60008060408385031215612ceb57612cea6122ac565b5b6000612cf985828601612cbf565b9250506020612d0a85828601612cbf565b9150509250929050565b612d1d8161265b565b82525050565b600060a0820190508181036000830152612d3d81886125d6565b90508181036020830152612d5181876125d6565b9050612d606040830186612d14565b612d6d606083018561250a565b8181036080830152612d7f81846125d6565b90509695505050505050565b6000602082019050612da0600083018461250a565b92915050565b600060208284031215612dbc57612dbb6122ac565b5b6000612dca84828501612893565b91505092915050565b60006020820190508181036000830152612ded81846125d6565b905092915050565b7f4e487b7100000000000000000000000000000000000000000000000000000000600052602260045260246000fd5b60006002820490506001821680612e3c57607f821691505b602082108103612e4f57612e4e612df5565b5b50919050565b600081905092915050565b6000612e6b82612590565b612e758185612e55565b9350612e858185602086016125ac565b80840191505092915050565b6000612e9d8284612e60565b915081905092915050565b6000604082019050612ebd6000830185612d14565b8181036020830152612ecf81846125d6565b90509392505050565b60008190508160005260206000209050919050565b60006020601f8301049050919050565b600082821b905092915050565b600060088302612f3a7fffffffffffffffffffffffffffffffffffffffffffffffffffffffffffffffff82612efd565b612f448683612efd565b95508019841693508086168417925050509392505050565b6000612f77612f72612f6d84612500565b612775565b612500565b9050919050565b6000819050919050565b612f9183612f5c565b612fa5612f9d82612f7e565b848454612f0a565b825550505050565b600090565b612fba612fad565b612fc5818484612f88565b505050565b5b81811015612fe957612fde600082612fb2565b600181019050612fcb565b5050565b601f82111561302e57612fff81612ed8565b61300884612eed565b81016020851015613017578190505b61302b61302385612eed565b830182612fca565b50505b505050565b600082821c905092915050565b600061305160001984600802613033565b1980831691505092915050565b600061306a8383613040565b9150826002028217905092915050565b61308382612590565b67ffffffffffffffff81111561309c5761309b61238c565b5b6130a68254612e24565b6130b1828285612fed565b600060209050601f8311600181146130e457600084156130d2578287015190505b6130dc858261305e565b865550613144565b601f1984166130f286612ed8565b60005b8281101561311a578489015182556001820191506020850194506020810190506130f5565b868310156131375784890151613133601f891682613040565b8355505b6001600288020188555050505b505050505050565b6000606082019050818103600083015261316681866125d6565b90506131756020830185612347565b613182604083018461250a565b949350505050565b600061ffff82169050919050565b60006131b36131ae6131a98461318a565b612775565b612500565b9050919050565b6131c381613198565b82525050565b600060608201905081810360008301526131e381866125d6565b90506131f260208301856131ba565b6131ff604083018461250a565b949350505050565b7f54696d65206c696d697420706173736564202f204246542072656a6563746564600082015250565b600061323d60208361259b565b915061324882613207565b602082019050919050565b6000608082019050818103600083015261326d81866125d6565b905061327c60208301856131ba565b818103604083015261328d81613230565b905061329c606083018461250a565b949350505050565b7f4e487b7100000000000000000000000000000000000000000000000000000000600052603260045260246000fd5b7f4e487b7100000000000000000000000000000000000000000000000000000000600052601160045260246000fd5b600061330d82612500565b91507fffffffffffffffffffffffffffffffffffffffffffffffffffffffffffffffff820361333f5761333e6132d3565b5b600182019050919050565b6000606082019050818103600083015261336481866125d6565b9050818103602083015261337881856125d6565b9050613387604083018461250a565b949350505050565b600060408201905081810360008301526133a981856125d6565b90506133b8602083018461250a565b9392505050565b60006133ca82612500565b91506133d583612500565b92508282019050808211156133ed576133ec6132d3565b5b92915050565b60006133fe82612500565b915061340983612500565b9250828203905081811115613421576134206132d3565b5b92915050565b600060408201905061343c6000830185612d14565b6134496020830184612852565b939250505056fea2646970667358221220735e948b85ec0e52b819a563b04b272ce3ccb5b9ac11892c05940e3d316f0c4564736f6c63430008140033",
  "linkReferences": {},
  "deployedLinkReferences": {}
}