{
  "_format": "hh-sol-artifact-1",
  "contractName": "EvidenceLocker",
  "sourceName": "contracts/EvidenceLocker.sol",
  "abi": [
    {
      "inputs": [
        {
          "internalType": "address",
          "name": "_evidenceTokenAddress",
          "type": "address"
        }
      ],
      "stateMutability": "nonpayable",
      "type": "constructor"
    },
    {
      "inputs": [],
      "name": "AccessControlBadConfirmation",
      "type": "error"
    },
    {
      "inputs": [
        {
          "internalType": "address",
          "name": "account",
          "type": "address"
        },
        {
          "internalType": "bytes32",
          "name": "neededRole",
          "type": "bytes32"
        }
      ],
      "name": "AccessControlUnauthorizedAccount",
      "type": "error"
    },
    {
      "inputs": [
        {
          "internalType": "address",
          "name": "authority",
          "type": "address"
        },
        {
          "internalType": "string",
          "name": "fileHash",
          "type": "string"
        }
      ],
      "name": "AlreadyVoted",
      "type": "error"
    },
    {
      "inputs": [
        {
          "internalType": "string",
          "name": "fileHash",
          "type": "string"
        }
      ],
      "name": "EvidenceAlreadyExists",
      "type": "error"
    },
    {
      "inputs": [
        {
          "internalType": "string",
          "name": "fileHash",
          "type": "string"
        }
      ],
      "name": "EvidenceNotFound",
      "type": "error"
    },
    {
      "inputs": [],
      "name": "InvalidConsensusThreshold",
      "type": "error"
    },
    {
      "inputs": [
        {
          "internalType": "address",
          "name": "caller",
          "type": "address"
        }
      ],
      "name": "NotAuthorized",
      "type": "error"
    },
    {
      "anonymous": false,
      "inputs": [
        {
          "indexed": false,
          "internalType": "uint256",
          "name": "newApprovals",
          "type": "uint256"
        },
        {
          "indexed": false,
          "internalType": "uint256",
          "name": "newRejections",
          "type": "uint256"
        }
      ],
      "name": "ConsensusThresholdUpdated",
      "type": "event"
    },
    {
      "anonymous": false,
      "inputs": [
        {
          "indexed": false,
          "internalType": "string",
          "name": "fileHash",
          "type": "string"
        },
        {
          "indexed": false,
          "internalType": "uint256",
          "name": "rejectionCount",
          "type": "uint256"
        },
        {
          "indexed": false,
          "internalType": "string",
          "name": "reason",
          "type": "string"
        },
        {
          "indexed": false,
          "internalType": "uint256",
          "name": "timestamp",
          "type": "uint256"
        }
      ],
      "name": "EvidenceRejected",
      "type": "event"
    },
    {
      "anonymous": false,
      "inputs": [
        {
          "indexed": false,
          "internalType": "string",
          "name": "fileHash",
          "type": "string"
        },
        {
          "indexed": false,
          "internalType": "string",
          "name": "ipfsCID",
          "type": "string"
        },
        {
          "indexed": true,
          "internalType": "address",
          "name": "uploadedBy",
          "type": "address"
        },
        {
          "indexed": false,
          "internalType": "uint256",
          "name": "timestamp",
          "type": "uint256"
        }
      ],
      "name": "EvidenceStored",
      "type": "event"
    },
    {
      "anonymous": false,
      "inputs": [
        {
          "indexed": false,
          "internalType": "string",
          "name": "fileHash",
          "type": "string"
        },
        {
          "indexed": true,
          "internalType": "address",
          "name": "uploadedBy",
          "type": "address"
        },
        {
          "indexed": false,
          "internalType": "uint256",
          "name": "timestamp",
          "type": "uint256"
        }
      ],
      "name": "EvidenceSubmitted",
      "type": "event"
    },
    {
      "anonymous": false,
      "inputs": [
        {
          "indexed": false,
          "internalType": "string",
          "name": "fileHash",
          "type": "string"
        },
        {
          "indexed": false,
          "internalType": "uint256",
          "name": "approvalCount",
          "type": "uint256"
        },
        {
          "indexed": false,
          "internalType": "uint256",
          "name": "timestamp",
          "type": "uint256"
        }
      ],
      "name": "EvidenceVerified",
      "type": "event"
    },
    {
      "anonymous": false,
      "inputs": [
        {
          "indexed": true,
          "internalType": "bytes32",
          "name": "role",
          "type": "bytes32"
        },
        {
          "indexed": true,
          "internalType": "bytes32",
          "name": "previousAdminRole",
          "type": "bytes32"
        },
        {
          "indexed": true,
          "internalType": "bytes32",
          "name": "newAdminRole",
          "type": "bytes32"
        }
      ],
      "name": "RoleAdminChanged",
      "type": "event"
    },
    {
      "anonymous": false,
      "inputs": [
        {
          "indexed": true,
          "internalType": "bytes32",
          "name": "role",
          "type": "bytes32"
        },
        {
          "indexed": true,
          "internalType": "address",
          "name": "account",
          "type": "address"
        },
        {
          "indexed": true,
          "internalType": "address",
          "name": "sender",
          "type": "address"
        }
      ],
      "name": "RoleGranted",
      "type": "event"
    },
    {
      "anonymous": false,
      "inputs": [
        {
          "indexed": true,
          "internalType": "bytes32",
          "name": "role",
          "type": "bytes32"
        },
        {
          "indexed": true,
          "internalType": "address",
          "name": "account",
          "type": "address"
        },
        {
          "indexed": true,
          "internalType": "address",
          "name": "sender",
          "type": "address"
        }
      ],
      "name": "RoleRevoked",
      "type": "event"
    },
    {
      "anonymous": false,
      "inputs": [
        {
          "indexed": false,
          "internalType": "string",
          "name": "fileHash",
          "type": "string"
        },
        {
          "indexed": true,
          "internalType": "address",
          "name": "authority",
          "type": "address"
        },
        {
          "indexed": false,
          "internalType": "bool",
          "name": "approved",
          "type": "bool"
        },
        {
          "indexed": false,
          "internalType": "uint256",
          "name": "timestamp",
          "type": "uint256"
        }
      ],
      "name": "VoteCast",
      "type": "event"
    },
    {
      "inputs": [],
      "name": "AUTHORITY_ROLE",
      "outputs": [
        {
          "internalType": "bytes32",
          "name": "",
          "type": "bytes32"
        }
      ],
      "stateMutability": "view",
      "type": "function"
    },
    {
      "inputs": [],
      "name": "DEFAULT_ADMIN_ROLE",
      "outputs": [
        {
          "internalType": "bytes32",
          "name": "",
          "type": "bytes32"
        }
      ],
      "stateMutability": "view",
      "type": "function"
    },
    {
      "inputs": [],
      "name": "UPLOADER_ROLE",
      "outputs": [
        {
          "internalType": "bytes32",
          "name": "",
          "type": "bytes32"
        }
      ],
      "stateMutability": "view",
      "type": "function"
    },
    {
      "inputs": [
        {
          "internalType": "string",
          "name": "_fileHash",
          "type": "string"
        },
        {
          "internalType": "string",
          "name": "_authorityId",
          "type": "string"
        },
        {
          "internalType": "bool",
          "name": "_approve",
          "type": "bool"
        },
        {
          "internalType": "string",
          "name": "_reason",
          "type": "string"
        }
      ],
      "name": "castVote",
      "outputs": [],
      "stateMutability": "nonpayable",
      "type": "function"
    },
    {
      "inputs": [],
      "name": "evidenceToken",
      "outputs": [
        {
          "internalType": "contract IEvidenceToken",
          "name": "",
          "type": "address"
        }
      ],
      "stateMutability": "view",
      "type": "function"
    },
    {
      "inputs": [],
      "name": "getAllPendingEvidence",
      "outputs": [
        {
          "internalType": "string[]",
          "name": "",
          "type": "string[]"
        }
      ],
      "stateMutability": "view",
      "type": "function"
    },
    {
      "inputs": [
        {
          "internalType": "string",
          "name": "_fileHash",
          "type": "string"
        }
      ],
      "name": "getEvidence",
      "outputs": [
        {
          "internalType": "string",
          "name": "fileName",
          "type": "string"
        },
        {
          "internalType": "string",
          "name": "ipfsCID",
          "type": "string"
        },
        {
          "internalType": "address",
          "name": "uploadedBy",
          "type": "address"
        },
        {
          "internalType": "uint256",
          "name": "timestamp",
          "type": "uint256"
        },
        {
          "internalType": "string",
          "name": "description",
          "type": "string"
        }
      ],
      "stateMutability": "view",
      "type": "function"
    },
    {
      "inputs": [],
      "name": "getEvidenceCount",
      "outputs": [
        {
          "internalType": "uint256",
          "name": "",
          "type": "uint256"
        }
      ],
      "stateMutability": "view",
      "type": "function"
    },
    {
      "inputs": [
        {
          "internalType": "uint256",
          "name": "start",
          "type": "uint256"
        },
        {
          "internalType": "uint256",
          "name": "count",
          "type": "uint256"
        }
      ],
      "name": "getHashesPaginated",
      "outputs": [
        {
          "internalType": "string[]",
          "name": "",
          "type": "string[]"
        }
      ],
      "stateMutability": "view",
      "type": "function"
    },
    {
      "inputs": [
        {
          "internalType": "bytes32",
          "name": "role",
          "type": "bytes32"
        }
      ],
      "name": "getRoleAdmin",
      "outputs": [
        {
          "internalType": "bytes32",
          "name": "",
          "type": "bytes32"
        }
      ],
      "stateMutability": "view",
      "type": "function"
    },
    {
      "inputs": [
        {
          "internalType": "string",
          "name": "_fileHash",
          "type": "string"
        }
      ],
      "name": "getVotingStatus",
      "outputs": [
        {
          "internalType": "uint256",
          "name": "approvalCount",
          "type": "uint256"
        },
        {
          "internalType": "uint256",
          "name": "rejectionCount",
          "type": "uint256"
        },
        {
          "internalType": "enum EvidenceLocker.EvidenceStatus",
          "name": "status",
          "type": "uint8"
        },
        {
          "internalType": "string",
          "name": "rejectionReason",
          "type": "string"
        },
        {
          "internalType": "address[]",
          "name": "approvedBy",
          "type": "address[]"
        },
        {
          "internalType": "address[]",
          "name": "rejectedBy",
          "type": "address[]"
        }
      ],
      "stateMutability": "view",
      "type": "function"
    },
    {
      "inputs": [
        {
          "internalType": "address",
          "name": "account",
          "type": "address"
        }
      ],
      "name": "grantAuthorityRole",
      "outputs": [],
      "stateMutability": "nonpayable",
      "type": "function"
    },
    {
      "inputs": [
        {
          "internalType": "bytes32",
          "name": "role",
          "type": "bytes32"
        },
        {
          "internalType": "address",
          "name": "account",
          "type": "address"
        }
      ],
      "name": "grantRole",
      "outputs": [],
      "stateMutability": "nonpayable",
      "type": "function"
    },
    {
      "inputs": [
        {
          "internalType": "bytes32",
          "name": "role",
          "type": "bytes32"
        },
        {
          "internalType": "address",
          "name": "account",
          "type": "address"
        }
      ],
      "name": "hasRole",
      "outputs": [
        {
          "internalType": "bool",
          "name": "",
          "type": "bool"
        }
      ],
      "stateMutability": "view",
      "type": "function"
    },
    {
      "inputs": [
        {
          "internalType": "string",
          "name": "_fileHash",
          "type": "string"
        },
        {
          "internalType": "string",
          "name": "_authorityId",
          "type": "string"
        }
      ],
      "name": "hasVoted",
      "outputs": [
        {
          "internalType": "bool",
          "name": "",
          "type": "bool"
        }
      ],
      "stateMutability": "view",
      "type": "function"
    },
    {
      "inputs": [
        {
          "internalType": "bytes32",
          "name": "role",
          "type": "bytes32"
        },
        {
          "internalType": "address",
          "name": "callerConfirmation",
          "type": "address"
        }
      ],
      "name": "renounceRole",
      "outputs": [],
      "stateMutability": "nonpayable",
      "type": "function"
    },
    {
      "inputs": [],
      "name": "requiredApprovals",
      "outputs": [
        {
          "internalType": "uint256",
          "name": "",
          "type": "uint256"
        }
      ],
      "stateMutability": "view",
      "type": "function"
    },
    {
      "inputs": [],
      "name": "requiredRejections",
      "outputs": [
        {
          "internalType": "uint256",
          "name": "",
          "type": "uint256"
        }
      ],
      "stateMutability": "view",
      "type": "function"
    },
    {
      "inputs": [
        {
          "internalType": "address",
          "name": "account",
          "type": "address"
        }
      ],
      "name": "revokeAuthorityRole",
      "outputs": [],
      "stateMutability": "nonpayable",
      "type": "function"
    },
    {
      "inputs": [
        {
          "internalType": "bytes32",
          "name": "role",
          "type": "bytes32"
        },
        {
          "internalType": "address",
          "name": "account",
          "type": "address"
        }
      ],
      "name": "revokeRole",
      "outputs": [],
      "stateMutability": "nonpayable",
      "type": "function"
    },
    {
      "inputs": [
        {
          "internalType": "uint256",
          "name": "_approvals",
          "type": "uint256"
        },
        {
          "internalType": "uint256",
          "name": "_rejections",
          "type": "uint256"
        }
      ],
      "name": "setConsensusThreshold",
      "outputs": [],
      "stateMutability": "nonpayable",
      "type": "function"
    },
    {
      "inputs": [
        {
          "internalType": "string",
          "name": "_fileName",
          "type": "string"
        },
        {
          "internalType": "string",
          "name": "_fileHash",
          "type": "string"
        },
        {
          "internalType": "string",
          "name": "_ipfsCID",
          "type": "string"
        },
        {
          "internalType": "string",
          "name": "_description",
          "type": "string"
        }
      ],
      "name": "storeEvidence",
      "outputs": [],
      "stateMutability": "nonpayable",
      "type": "function"
    },
    {
      "inputs": [
        {
          "internalType": "bytes4",
          "name": "interfaceId",
          "type": "bytes4"
        }
      ],
      "name": "supportsInterface",
      "outputs": [
        {
          "internalType": "bool",
          "name": "",
          "type": "bool"
        }
      ],
      "stateMutability": "view",
      "type": "function"
    },
    {
      "inputs": [
        {
          "internalType": "string",
          "name": "_fileHash",
          "type": "string"
        }
      ],
      "name": "verifyEvidence",
      "outputs": [
        {
          "internalType": "bool",
          "name": "",
          "type": "bool"
        }
      ],
      "stateMutability": "view",
      "type": "function"
    }
  ],
  "bytecode": "0x60806040526002805560016003553480156200001a57600080fd5b50604051620037f0380380620037f083398181016040528101906200004091906200027d565b620000556000801b336200009e60201b60201c565b5080600160006101000a81548173ffffffffffffffffffffffffffffffffffffffff021916908373ffffffffffffffffffffffffffffffffffffffff16021790555050620002af565b6000620000b28383620001a160201b60201c565b6200019657600160008085815260200190815260200160002060000160008473ffffffffffffffffffffffffffffffffffffffff1673ffffffffffffffffffffffffffffffffffffffff16815260200190815260200160002060006101000a81548160ff021916908315150217905550620001326200020b60201b60201c565b73ffffffffffffffffffffffffffffffffffffffff168273ffffffffffffffffffffffffffffffffffffffff16847f2f8788117e7eff1d82e926ec794901d17c78024a50270940304540a733656f0d60405160405180910390a4600190506200019b565b600090505b92915050565b600080600084815260200190815260200160002060000160008373ffffffffffffffffffffffffffffffffffffffff1673ffffffffffffffffffffffffffffffffffffffff16815260200190815260200160002060009054906101000a900460ff16905092915050565b600033905090565b600080fd5b600073ffffffffffffffffffffffffffffffffffffffff82169050919050565b6000620002458262000218565b9050919050565b620002578162000238565b81146200026357600080fd5b50565b60008151905062000277816200024c565b92915050565b60006020828403121562000296576200029562000213565b5b6000620002a68482850162000266565b91505092915050565b61353180620002bf6000396000f3fe608060405234801561001057600080fd5b50600436106101585760003560e01c80637e34df8c116100c3578063a51e06371161007c578063a51e0637146103f2578063b16c6ee714610410578063b8d4448714610444578063d32db21814610462578063d547741f1461047e578063d5fd7d631461049a57610158565b80637e34df8c1461031c5780638dcc11ef1461033a57806391d148541461035657806399c1aadc14610386578063a217fddf146103a4578063a323f3d3146103c257610158565b806336568abe1161011557806336568abe146102485780634a3fba0e146102645780634a71d9121461028257806361cc07661461029e57806366a038bb146102bc5780636f13f95a146102ec57610158565b806301ffc9a71461015d57806318cd58791461018d5780631c645c41146101c2578063248a9ca3146101e05780632f2ff15d146102105780633253d0fd1461022c575b600080fd5b61017760048036038101906101729190612436565b6104b6565b604051610184919061247e565b60405180910390f35b6101a760048036038101906101a291906125df565b610530565b6040516101b996959493929190612827565b60405180910390f35b6101ca6107c7565b6040516101d791906128fc565b60405180910390f35b6101fa60048036038101906101f5919061294d565b6107ed565b6040516102079190612989565b60405180910390f35b61022a600480360381019061022591906129d0565b61080c565b005b61024660048036038101906102419190612a3c565b61082e565b005b610262600480360381019061025d91906129d0565b6108cd565b005b61026c610948565b6040516102799190612989565b60405180910390f35b61029c60048036038101906102979190612aa8565b61096c565b005b6102a6610f05565b6040516102b39190612989565b60405180910390f35b6102d660048036038101906102d19190612b63565b610f29565b6040516102e3919061247e565b60405180910390f35b610306600480360381019061030191906125df565b610f7c565b604051610313919061247e565b60405180910390f35b610324611008565b6040516103319190612ce7565b60405180910390f35b610354600480360381019061034f9190612d09565b611335565b005b610370600480360381019061036b91906129d0565b611762565b60405161037d919061247e565b60405180910390f35b61038e6117cc565b60405161039b9190612de0565b60405180910390f35b6103ac6117d2565b6040516103b99190612989565b60405180910390f35b6103dc60048036038101906103d79190612a3c565b6117d9565b6040516103e99190612ce7565b60405180910390f35b6103fa61196b565b6040516104079190612de0565b60405180910390f35b61042a600480360381019061042591906125df565b611971565b60405161043b959493929190612e0a565b60405180910390f35b61044c611fc4565b6040516104599190612de0565b60405180910390f35b61047c60048036038101906104779190612e72565b611fd1565b005b610498600480360381019061049391906129d0565b61200c565b005b6104b460048036038101906104af9190612e72565b61202e565b005b60007f7965db0b000000000000000000000000000000000000000000000000000000007bffffffffffffffffffffffffffffffffffffffffffffffffffffffff1916827bffffffffffffffffffffffffffffffffffffffffffffffffffffffff19161480610529575061052882612069565b5b9050919050565b600080600060608060606000878051906020012090506004600082815260200190815260200160002060050160059054906101000a900460ff166105ab57876040517fe9d832820000000000000000000000000000000000000000000000000000000081526004016105a29190612e9f565b60405180910390fd5b60006004600083815260200190815260200160002090508060050160009054906101000a900461ffff168160050160029054906101000a900461ffff168260050160049054906101000a900460ff168360070184600801856009018561ffff1695508461ffff16945082805461062090612ef0565b80601f016020809104026020016040519081016040528092919081815260200182805461064c90612ef0565b80156106995780601f1061066e57610100808354040283529160200191610699565b820191906000526020600020905b81548152906001019060200180831161067c57829003601f168201915b505050505092508180548060200260200160405190810160405280929190818152602001828054801561072157602002820191906000526020600020905b8160009054906101000a900473ffffffffffffffffffffffffffffffffffffffff1673ffffffffffffffffffffffffffffffffffffffff16815260200190600101908083116106d7575b50505050509150808054806020026020016040519081016040528092919081815260200182805480156107a957602002820191906000526020600020905b8160009054906101000a900473ffffffffffffffffffffffffffffffffffffffff1673ffffffffffffffffffffffffffffffffffffffff168152602001906001019080831161075f575b50505050509050975097509750975097509750505091939550919395565b600160009054906101000a900473ffffffffffffffffffffffffffffffffffffffff1681565b6000806000838152602001908152602001600020600101549050919050565b610815826107ed565b61081e816120d3565b61082883836120e7565b50505050565b6000801b61083b816120d3565b600083148061084a5750600082145b15610881576040517ff30c208a00000000000000000000000000000000000000000000000000000000815260040160405180910390fd5b82600281905550816003819055507f05b3feb96408c70a384e932c1f049e77e543603df0e52b58b83d7a3e7620670083836040516108c0929190612f21565b60405180910390a1505050565b6108d56121d8565b73ffffffffffffffffffffffffffffffffffffffff168173ffffffffffffffffffffffffffffffffffffffff1614610939576040517f6697b23200000000000000000000000000000000000000000000000000000000815260040160405180910390fd5b61094382826121e0565b505050565b7fd565e3fc066df348a5cbc05a8d6323e00552838041cea2d84cc59876ba37735d81565b7fd565e3fc066df348a5cbc05a8d6323e00552838041cea2d84cc59876ba37735d610996816120d3565b6000858051906020012090506004600082815260200190815260200160002060050160059054906101000a900460ff16610a0757856040517fe9d832820000000000000000000000000000000000000000000000000000000081526004016109fe9190612e9f565b60405180910390fd5b6006600082815260200190815260200160002085604051610a289190612f86565b908152602001604051809103902060009054906101000a900460ff1615610a885733866040517fc2328863000000000000000000000000000000000000000000000000000000008152600401610a7f929190612f9d565b60405180910390fd5b600060046000838152602001908152602001600020905060016006600084815260200190815260200160002087604051610ac29190612f86565b908152602001604051809103902060006101000a81548160ff0219169083151502179055508415610b8e5780600801339080600181540180825580915050600190039060005260206000200160009091909190916101000a81548173ffffffffffffffffffffffffffffffffffffffff021916908373ffffffffffffffffffffffffffffffffffffffff16021790555080600501600081819054906101000a900461ffff168092919060010191906101000a81548161ffff021916908361ffff16021790555050610c3d565b80600901339080600181540180825580915050600190039060005260206000200160009091909190916101000a81548173ffffffffffffffffffffffffffffffffffffffff021916908373ffffffffffffffffffffffffffffffffffffffff16021790555083816007019081610c04919061316f565b5080600501600281819054906101000a900461ffff168092919060010191906101000a81548161ffff021916908361ffff160217905550505b428160040160106101000a8154816fffffffffffffffffffffffffffffffff02191690836fffffffffffffffffffffffffffffffff1602179055503373ffffffffffffffffffffffffffffffffffffffff167f8f939c0e8da82099bc9be68995da582362fa8d3032227846326c305b0f2d2e37888742604051610cc293929190613241565b60405180910390a26002548160050160009054906101000a900461ffff1661ffff1610158015610d28575060026003811115610d0157610d00612641565b5b8160050160049054906101000a900460ff166003811115610d2557610d24612641565b5b14155b15610dac5760028160050160046101000a81548160ff02191690836003811115610d5557610d54612641565b5b02179055507f82af08a251062fb301974b7ba1af9929393e54f47a77ce262239cee29bdb6466878260050160009054906101000a900461ffff1642604051610d9f939291906132be565b60405180910390a1610efc565b6003548160050160029054906101000a900461ffff1661ffff1610158015610e095750600380811115610de257610de1612641565b5b8160050160049054906101000a900460ff166003811115610e0657610e05612641565b5b14155b15610e8f5760038160050160046101000a81548160ff02191690836003811115610e3657610e35612641565b5b02179055507f6eb0270f26abecfd931edc16a4e9ff7eb4f7074d3718899a4fe9d411256ceb3d878260050160029054906101000a900461ffff168642604051610e8294939291906132fc565b60405180910390a1610efb565b60006003811115610ea357610ea2612641565b5b8160050160049054906101000a900460ff166003811115610ec757610ec6612641565b5b03610efa5760018160050160046101000a81548160ff02191690836003811115610ef457610ef3612641565b5b02179055505b5b5b50505050505050565b7f922390b27f65d828a1f7695b2eaae33fd0be87496792afddba1d25446a8fcb9181565b600080838051906020012090506006600082815260200190815260200160002083604051610f579190612f86565b908152602001604051809103902060009054906101000a900460ff1691505092915050565b600080828051906020012090506004600082815260200190815260200160002060050160059054906101000a900460ff168015611000575060026003811115610fc857610fc7612641565b5b6004600083815260200190815260200160002060050160049054906101000a900460ff166003811115610ffe57610ffd612641565b5b145b915050919050565b60607fd565e3fc066df348a5cbc05a8d6323e00552838041cea2d84cc59876ba37735d611034816120d3565b6000805b6005805490508110156111275760006005828154811061105b5761105a61334f565b5b906000526020600020015490506000600381111561107c5761107b612641565b5b6004600083815260200190815260200160002060050160049054906101000a900460ff1660038111156110b2576110b1612641565b5b14806111055750600160038111156110cd576110cc612641565b5b6004600083815260200190815260200160002060050160049054906101000a900460ff16600381111561110357611102612641565b5b145b15611119578280611115906133ad565b9350505b818060010192505050611038565b5060008167ffffffffffffffff811115611144576111436124b4565b5b60405190808252806020026020018201604052801561117757816020015b60608152602001906001900390816111625790505b5090506000805b60058054905081101561132a576000600582815481106111a1576111a061334f565b5b90600052602060002001549050600060038111156111c2576111c1612641565b5b6004600083815260200190815260200160002060050160049054906101000a900460ff1660038111156111f8576111f7612641565b5b148061124b57506001600381111561121357611212612641565b5b6004600083815260200190815260200160002060050160049054906101000a900460ff16600381111561124957611248612641565b5b145b1561131c5760046000828152602001908152602001600020600101805461127190612ef0565b80601f016020809104026020016040519081016040528092919081815260200182805461129d90612ef0565b80156112ea5780601f106112bf576101008083540402835291602001916112ea565b820191906000526020600020905b8154815290600101906020018083116112cd57829003601f168201915b50505050508484815181106113025761130161334f565b5b60200260200101819052508280611318906133ad565b9350505b81806001019250505061117e565b508194505050505090565b6000838051906020012090506004600082815260200190815260200160002060050160059054906101000a900460ff16156113a757836040517f81378a7600000000000000000000000000000000000000000000000000000000815260040161139e9190612e9f565b60405180910390fd5b6060604051806101c001604052808781526020018681526020018581526020013373ffffffffffffffffffffffffffffffffffffffff168152602001426fffffffffffffffffffffffffffffffff168152602001426fffffffffffffffffffffffffffffffff168152602001600061ffff168152602001600061ffff1681526020016000600381111561143d5761143c612641565b5b815260200160011515815260200184815260200160405180602001604052806000815250815260200182815260200182815250600460008481526020019081526020016000206000820151816000019081611498919061316f565b5060208201518160010190816114ae919061316f565b5060408201518160020190816114c4919061316f565b5060608201518160030160006101000a81548173ffffffffffffffffffffffffffffffffffffffff021916908373ffffffffffffffffffffffffffffffffffffffff16021790555060808201518160040160006101000a8154816fffffffffffffffffffffffffffffffff02191690836fffffffffffffffffffffffffffffffff16021790555060a08201518160040160106101000a8154816fffffffffffffffffffffffffffffffff02191690836fffffffffffffffffffffffffffffffff16021790555060c08201518160050160006101000a81548161ffff021916908361ffff16021790555060e08201518160050160026101000a81548161ffff021916908361ffff1602179055506101008201518160050160046101000a81548160ff021916908360038111156115fc576115fb612641565b5b02179055506101208201518160050160056101000a81548160ff021916908315150217905550610140820151816006019081611638919061316f565b5061016082015181600701908161164f919061316f565b5061018082015181600801908051906020019061166d929190612323565b506101a082015181600901908051906020019061168b929190612323565b5090505060058290806001815401808255809150506001900390600052602060002001600090919091909150553373ffffffffffffffffffffffffffffffffffffffff167f94f6e9bb96481c6865680f687755925c7a69b54b9b99c6229080c0c2850e36e8868642604051611702939291906133f5565b60405180910390a23373ffffffffffffffffffffffffffffffffffffffff167f4487f3398c99757094c9ac1dad87a3648d90241c54f4b1afae94e705e26a8889864260405161175292919061343a565b60405180910390a2505050505050565b600080600084815260200190815260200160002060000160008373ffffffffffffffffffffffffffffffffffffffff1673ffffffffffffffffffffffffffffffffffffffff16815260200190815260200160002060009054906101000a900460ff16905092915050565b60025481565b6000801b81565b6060600082846117e9919061346a565b90506005805490508111156118015760058054905090505b6000848261180f919061349e565b67ffffffffffffffff811115611828576118276124b4565b5b60405190808252806020026020018201604052801561185b57816020015b60608152602001906001900390816118465790505b50905060008590505b8281101561195f5760046000600583815481106118845761188361334f565b5b9060005260206000200154815260200190815260200160002060010180546118ab90612ef0565b80601f01602080910402602001604051908101604052809291908181526020018280546118d790612ef0565b80156119245780601f106118f957610100808354040283529160200191611924565b820191906000526020600020905b81548152906001019060200180831161190757829003601f168201915b5050505050828783611936919061349e565b815181106119475761194661334f565b5b60200260200101819052508080600101915050611864565b50809250505092915050565b60035481565b60608060008060606000868051906020012090506004600082815260200190815260200160002060050160059054906101000a900460ff166119ea57866040517fe9d832820000000000000000000000000000000000000000000000000000000081526004016119e19190612e9f565b60405180910390fd5b600060046000838152602001908152602001600020604051806101c0016040529081600082018054611a1b90612ef0565b80601f0160208091040260200160405190810160405280929190818152602001828054611a4790612ef0565b8015611a945780601f10611a6957610100808354040283529160200191611a94565b820191906000526020600020905b815481529060010190602001808311611a7757829003601f168201915b50505050508152602001600182018054611aad90612ef0565b80601f0160208091040260200160405190810160405280929190818152602001828054611ad990612ef0565b8015611b265780601f10611afb57610100808354040283529160200191611b26565b820191906000526020600020905b815481529060010190602001808311611b0957829003601f168201915b50505050508152602001600282018054611b3f90612ef0565b80601f0160208091040260200160405190810160405280929190818152602001828054611b6b90612ef0565b8015611bb85780601f10611b8d57610100808354040283529160200191611bb8565b820191906000526020600020905b815481529060010190602001808311611b9b57829003601f168201915b505050505081526020016003820160009054906101000a900473ffffffffffffffffffffffffffffffffffffffff1673ffffffffffffffffffffffffffffffffffffffff1673ffffffffffffffffffffffffffffffffffffffff1681526020016004820160009054906101000a90046fffffffffffffffffffffffffffffffff166fffffffffffffffffffffffffffffffff166fffffffffffffffffffffffffffffffff1681526020016004820160109054906101000a90046fffffffffffffffffffffffffffffffff166fffffffffffffffffffffffffffffffff166fffffffffffffffffffffffffffffffff1681526020016005820160009054906101000a900461ffff1661ffff1661ffff1681526020016005820160029054906101000a900461ffff1661ffff1661ffff1681526020016005820160049054906101000a900460ff166003811115611d1057611d0f612641565b5b6003811115611d2257611d21612641565b5b81526020016005820160059054906101000a900460ff16151515158152602001600682018054611d5190612ef0565b80601f0160208091040260200160405190810160405280929190818152602001828054611d7d90612ef0565b8015611dca5780601f10611d9f57610100808354040283529160200191611dca565b820191906000526020600020905b815481529060010190602001808311611dad57829003601f168201915b50505050508152602001600782018054611de390612ef0565b80601f0160208091040260200160405190810160405280929190818152602001828054611e0f90612ef0565b8015611e5c5780601f10611e3157610100808354040283529160200191611e5c565b820191906000526020600020905b815481529060010190602001808311611e3f57829003601f168201915b5050505050815260200160088201805480602002602001604051908101604052809291908181526020018280548015611eea57602002820191906000526020600020905b8160009054906101000a900473ffffffffffffffffffffffffffffffffffffffff1673ffffffffffffffffffffffffffffffffffffffff1681526020019060010190808311611ea0575b5050505050815260200160098201805480602002602001604051908101604052809291908181526020018280548015611f7857602002820191906000526020600020905b8160009054906101000a900473ffffffffffffffffffffffffffffffffffffffff1673ffffffffffffffffffffffffffffffffffffffff1681526020019060010190808311611f2e575b505050505081525050905080600001518160400151826060015183608001516fffffffffffffffffffffffffffffffff1684610140015196509650965096509650505091939590929450565b6000600580549050905090565b6000801b611fde816120d3565b6120087fd565e3fc066df348a5cbc05a8d6323e00552838041cea2d84cc59876ba37735d8361080c565b5050565b612015826107ed565b61201e816120d3565b61202883836121e0565b50505050565b6000801b61203b816120d3565b6120657fd565e3fc066df348a5cbc05a8d6323e00552838041cea2d84cc59876ba37735d8361200c565b5050565b60007f01ffc9a7000000000000000000000000000000000000000000000000000000007bffffffffffffffffffffffffffffffffffffffffffffffffffffffff1916827bffffffffffffffffffffffffffffffffffffffffffffffffffffffff1916149050919050565b6120e4816120df6121d8565b6122d2565b50565b60006120f38383611762565b6121cd57600160008085815260200190815260200160002060000160008473ffffffffffffffffffffffffffffffffffffffff1673ffffffffffffffffffffffffffffffffffffffff16815260200190815260200160002060006101000a81548160ff02191690831515021790555061216a6121d8565b73ffffffffffffffffffffffffffffffffffffffff168273ffffffffffffffffffffffffffffffffffffffff16847f2f8788117e7eff1d82e926ec794901d17c78024a50270940304540a733656f0d60405160405180910390a4600190506121d2565b600090505b92915050565b600033905090565b60006121ec8383611762565b156122c757600080600085815260200190815260200160002060000160008473ffffffffffffffffffffffffffffffffffffffff1673ffffffffffffffffffffffffffffffffffffffff16815260200190815260200160002060006101000a81548160ff0219169083151502179055506122646121d8565b73ffffffffffffffffffffffffffffffffffffffff168273ffffffffffffffffffffffffffffffffffffffff16847ff6391f5c32d9c69d2a47ea670b442974b53935d1edc7fd64eb21e047a839171b60405160405180910390a4600190506122cc565b600090505b92915050565b6122dc8282611762565b61231f5780826040517fe2517d3f0000000000000000000000000000000000000000000000000000000081526004016123169291906134d2565b60405180910390fd5b5050565b82805482825590600052602060002090810192821561239c579160200282015b8281111561239b5782518260006101000a81548173ffffffffffffffffffffffffffffffffffffffff021916908373ffffffffffffffffffffffffffffffffffffffff16021790555091602001919060010190612343565b5b5090506123a991906123ad565b5090565b5b808211156123c65760008160009055506001016123ae565b5090565b6000604051905090565b600080fd5b600080fd5b60007fffffffff0000000000000000000000000000000000000000000000000000000082169050919050565b612413816123de565b811461241e57600080fd5b50565b6000813590506124308161240a565b92915050565b60006020828403121561244c5761244b6123d4565b5b600061245a84828501612421565b91505092915050565b60008115159050919050565b61247881612463565b82525050565b6000602082019050612493600083018461246f565b92915050565b600080fd5b600080fd5b6000601f19601f8301169050919050565b7f4e487b7100000000000000000000000000000000000000000000000000000000600052604160045260246000fd5b6124ec826124a3565b810181811067ffffffffffffffff8211171561250b5761250a6124b4565b5b80604052505050565b600061251e6123ca565b905061252a82826124e3565b919050565b600067ffffffffffffffff82111561254a576125496124b4565b5b612553826124a3565b9050602081019050919050565b82818337600083830152505050565b600061258261257d8461252f565b612514565b90508281526020810184848401111561259e5761259d61249e565b5b6125a9848285612560565b509392505050565b600082601f8301126125c6576125c5612499565b5b81356125d684826020860161256f565b91505092915050565b6000602082840312156125f5576125f46123d4565b5b600082013567ffffffffffffffff811115612613576126126123d9565b5b61261f848285016125b1565b91505092915050565b6000819050919050565b61263b81612628565b82525050565b7f4e487b7100000000000000000000000000000000000000000000000000000000600052602160045260246000fd5b6004811061268157612680612641565b5b50565b600081905061269282612670565b919050565b60006126a282612684565b9050919050565b6126b281612697565b82525050565b600081519050919050565b600082825260208201905092915050565b60005b838110156126f25780820151818401526020810190506126d7565b60008484015250505050565b6000612709826126b8565b61271381856126c3565b93506127238185602086016126d4565b61272c816124a3565b840191505092915050565b600081519050919050565b600082825260208201905092915050565b6000819050602082019050919050565b600073ffffffffffffffffffffffffffffffffffffffff82169050919050565b600061278e82612763565b9050919050565b61279e81612783565b82525050565b60006127b08383612795565b60208301905092915050565b6000602082019050919050565b60006127d482612737565b6127de8185612742565b93506127e983612753565b8060005b8381101561281a57815161280188826127a4565b975061280c836127bc565b9250506001810190506127ed565b5085935050505092915050565b600060c08201905061283c6000830189612632565b6128496020830188612632565b61285660408301876126a9565b818103606083015261286881866126fe565b9050818103608083015261287c81856127c9565b905081810360a083015261289081846127c9565b9050979650505050505050565b6000819050919050565b60006128c26128bd6128b884612763565b61289d565b612763565b9050919050565b60006128d4826128a7565b9050919050565b60006128e6826128c9565b9050919050565b6128f6816128db565b82525050565b600060208201905061291160008301846128ed565b92915050565b6000819050919050565b61292a81612917565b811461293557600080fd5b50565b60008135905061294781612921565b92915050565b600060208284031215612963576129626123d4565b5b600061297184828501612938565b91505092915050565b61298381612917565b82525050565b600060208201905061299e600083018461297a565b92915050565b6129ad81612783565b81146129b857600080fd5b50565b6000813590506129ca816129a4565b92915050565b600080604083850312156129e7576129e66123d4565b5b60006129f585828601612938565b9250506020612a06858286016129bb565b9150509250929050565b612a1981612628565b8114612a2457600080fd5b50565b600081359050612a3681612a10565b92915050565b60008060408385031215612a5357612a526123d4565b5b6000612a6185828601612a27565b9250506020612a7285828601612a27565b9150509250929050565b612a8581612463565b8114612a9057600080fd5b50565b600081359050612aa281612a7c565b92915050565b60008060008060808587031215612ac257612ac16123d4565b5b600085013567ffffffffffffffff811115612ae057612adf6123d9565b5b612aec878288016125b1565b945050602085013567ffffffffffffffff811115612b0d57612b0c6123d9565b5b612b19878288016125b1565b9350506040612b2a87828801612a93565b925050606085013567ffffffffffffffff811115612b4b57612b4a6123d9565b5b612b57878288016125b1565b91505092959194509250565b60008060408385031215612b7a57612b796123d4565b5b600083013567ffffffffffffffff811115612b9857612b976123d9565b5b612ba4858286016125b1565b925050602083013567ffffffffffffffff811115612bc557612bc46123d9565b5b612bd1858286016125b1565b9150509250929050565b600081519050919050565b600082825260208201905092915050565b6000819050602082019050919050565b600082825260208201905092915050565b6000612c23826126b8565b612c2d8185612c07565b9350612c3d8185602086016126d4565b612c46816124a3565b840191505092915050565b6000612c5d8383612c18565b905092915050565b6000602082019050919050565b6000612c7d82612bdb565b612c878185612be6565b935083602082028501612c9985612bf7565b8060005b85811015612cd55784840389528151612cb68582612c51565b9450612cc183612c65565b925060208a01995050600181019050612c9d565b50829750879550505050505092915050565b60006020820190508181036000830152612d018184612c72565b905092915050565b60008060008060808587031215612d2357612d226123d4565b5b600085013567ffffffffffffffff811115612d4157612d406123d9565b5b612d4d878288016125b1565b945050602085013567ffffffffffffffff811115612d6e57612d6d6123d9565b5b612d7a878288016125b1565b935050604085013567ffffffffffffffff811115612d9b57612d9a6123d9565b5b612da7878288016125b1565b925050606085013567ffffffffffffffff811115612dc857612dc76123d9565b5b612dd4878288016125b1565b91505092959194509250565b6000602082019050612df56000830184612632565b92915050565b612e0481612783565b82525050565b600060a0820190508181036000830152612e2481886126fe565b90508181036020830152612e3881876126fe565b9050612e476040830186612dfb565b612e546060830185612632565b8181036080830152612e6681846126fe565b90509695505050505050565b600060208284031215612e8857612e876123d4565b5b6000612e96848285016129bb565b91505092915050565b60006020820190508181036000830152612eb981846126fe565b905092915050565b7f4e487b7100000000000000000000000000000000000000000000000000000000600052602260045260246000fd5b60006002820490506001821680612f0857607f821691505b602082108103612f1b57612f1a612ec1565b5b50919050565b6000604082019050612f366000830185612632565b612f436020830184612632565b9392505050565b600081905092915050565b6000612f60826126b8565b612f6a8185612f4a565b9350612f7a8185602086016126d4565b80840191505092915050565b6000612f928284612f55565b915081905092915050565b6000604082019050612fb26000830185612dfb565b8181036020830152612fc481846126fe565b90509392505050565b60008190508160005260206000209050919050565b60006020601f8301049050919050565b600082821b905092915050565b60006008830261302f7fffffffffffffffffffffffffffffffffffffffffffffffffffffffffffffffff82612ff2565b6130398683612ff2565b95508019841693508086168417925050509392505050565b600061306c61306761306284612628565b61289d565b612628565b9050919050565b6000819050919050565b61308683613051565b61309a61309282613073565b848454612fff565b825550505050565b600090565b6130af6130a2565b6130ba81848461307d565b505050565b5b818110156130de576130d36000826130a7565b6001810190506130c0565b5050565b601f821115613123576130f481612fcd565b6130fd84612fe2565b8101602085101561310c578190505b61312061311885612fe2565b8301826130bf565b50505b505050565b600082821c905092915050565b600061314660001984600802613128565b1980831691505092915050565b600061315f8383613135565b9150826002028217905092915050565b613178826126b8565b67ffffffffffffffff811115613191576131906124b4565b5b61319b8254612ef0565b6131a68282856130e2565b600060209050601f8311600181146131d957600084156131c7578287015190505b6131d18582613153565b865550613239565b601f1984166131e786612fcd565b60005b8281101561320f578489015182556001820191506020850194506020810190506131ea565b8683101561322c5784890151613228601f891682613135565b8355505b6001600288020188555050505b505050505050565b6000606082019050818103600083015261325b81866126fe565b905061326a602083018561246f565b6132776040830184612632565b949350505050565b600061ffff82169050919050565b60006132a86132a361329e8461327f565b61289d565b612628565b9050919050565b6132b88161328d565b82525050565b600060608201905081810360008301526132d881866126fe565b90506132e760208301856132af565b6132f46040830184612632565b949350505050565b6000608082019050818103600083015261331681876126fe565b905061332560208301866132af565b818103604083015261333781856126fe565b90506133466060830184612632565b95945050505050565b7f4e487b7100000000000000000000000000000000000000000000000000000000600052603260045260246000fd5b7f4e487b7100000000000000000000000000000000000000000000000000000000600052601160045260246000fd5b60006133b882612628565b91507fffffffffffffffffffffffffffffffffffffffffffffffffffffffffffffffff82036133ea576133e961337e565b5b600182019050919050565b6000606082019050818103600083015261340f81866126fe565b9050818103602083015261342381856126fe565b90506134326040830184612632565b949350505050565b6000604082019050818103600083015261345481856126fe565b90506134636020830184612632565b9392505050565b600061347582612628565b915061348083612628565b92508282019050808211156134985761349761337e565b5b92915050565b60006134a982612628565b91506134b483612628565b92508282039050818111156134cc576134cb61337e565b5b92915050565b60006040820190506134e76000830185612dfb565b6134f4602083018461297a565b939250505056fea264697066735822122027b4a42c2e55b012c52411ea0f5c61599c12623b28d04100e4e9de2e280320b364736f6c63430008140033",
  "linkReferences": {},
  "deployedLinkReferences": {}
}