{
  "_format": "hh-sol-artifact-1",
  "contractName": "EvidenceLocker",
  "sourceName": "contracts/EvidenceLocker.sol",
  "abi": [
    {
      "inputs": [
        {
          "internalType": "address",
          "name": "_evidenceTokenAddress",
          "type": "address"
        }
      ],
      "stateMutability": "nonpayable",
      "type": "constructor"
    },
    {
      "inputs": [],
      "name": "AccessControlBadConfirmation",
      "type": "error"
    },
    {
      "inputs": [
        {
          "internalType": "address",
          "name": "account",
          "type": "address"
        },
        {
          "internalType": "bytes32",
          "name": "neededRole",
          "type": "bytes32"
        }
      ],
      "name": "AccessControlUnauthorizedAccount",
      "type": "error"
    },
    {
      "inputs": [
        {
          "internalType": "address",
          "name": "authority",
          "type": "address"
        },
        {
          "internalType": "string",
          "name": "fileHash",
          "type": "string"
        }
      ],
      "name": "AlreadyVoted",
      "type": "error"
    },
    {
      "inputs": [
        {
          "internalType": "string",
          "name": "fileHash",
          "type": "string"
        }
      ],
      "name": "EvidenceAlreadyExists",
      "type": "error"
    },
    {
      "inputs": [
        {
          "internalType": "string",
          "name": "fileHash",
          "type": "string"
        }
      ],
      "name": "EvidenceNotFound",
      "type": "error"
    },
    {
      "inputs": [],
      "name": "InvalidConsensusThreshold",
      "type": "error"
    },
    {
      "inputs": [
        {
          "internalType": "address",
          "name": "caller",
          "type": "address"
        }
      ],
      "name": "NotAuthorized",
      "type": "error"
    },
    {
      "anonymous": false,
      "inputs": [
        {
          "indexed": false,
          "internalType": "uint256",
          "name": "newApprovals",
          "type": "uint256"
        },
        {
          "indexed": false,
          "internalType": "uint256",
          "name": "newRejections",
          "type": "uint256"
        }
      ],
      "name": "ConsensusThresholdUpdated",
      "type": "event"
    },
    {
      "anonymous": false,
      "inputs": [
        {
          "indexed": false,
          "internalType": "string",
          "name": "fileHash",
          "type": "string"
        },
        {
          "indexed": false,
          "internalType": "uint256",
          "name": "rejectionCount",
          "type": "uint256"
        },
        {
          "indexed": false,
          "internalType": "string",
          "name": "reason",
          "type": "string"
        },
        {
          "indexed": false,
          "internalType": "uint256",
          "name": "timestamp",
          "type": "uint256"
        }
      ],
      "name": "EvidenceRejected",
      "type": "event"
    },
    {
      "anonymous": false,
      "inputs": [
        {
          "indexed": false,
          "internalType": "string",
          "name": "fileHash",
          "type": "string"
        },
        {
          "indexed": false,
          "internalType": "string",
          "name": "ipfsCID",
          "type": "string"
        },
        {
          "indexed": true,
          "internalType": "address",
          "name": "uploadedBy",
          "type": "address"
        },
        {
          "indexed": false,
          "internalType": "uint256",
          "name": "timestamp",
          "type": "uint256"
        }
      ],
      "name": "EvidenceStored",
      "type": "event"
    },
    {
      "anonymous": false,
      "inputs": [
        {
          "indexed": false,
          "internalType": "string",
          "name": "fileHash",
          "type": "string"
        },
        {
          "indexed": true,
          "internalType": "address",
          "name": "uploadedBy",
          "type": "address"
        },
        {
          "indexed": false,
          "internalType": "uint256",
          "name": "timestamp",
          "type": "uint256"
        }
      ],
      "name": "EvidenceSubmitted",
      "type": "event"
    },
    {
      "anonymous": false,
      "inputs": [
        {
          "indexed": false,
          "internalType": "string",
          "name": "fileHash",
          "type": "string"
        },
        {
          "indexed": false,
          "internalType": "uint256",
          "name": "approvalCount",
          "type": "uint256"
        },
        {
          "indexed": false,
          "internalType": "uint256",
          "name": "timestamp",
          "type": "uint256"
        }
      ],
      "name": "EvidenceVerified",
      "type": "event"
    },
    {
      "anonymous": false,
      "inputs": [
        {
          "indexed": true,
          "internalType": "bytes32",
          "name": "role",
          "type": "bytes32"
        },
        {
          "indexed": true,
          "internalType": "bytes32",
          "name": "previousAdminRole",
          "type": "bytes32"
        },
        {
          "indexed": true,
          "internalType": "bytes32",
          "name": "newAdminRole",
          "type": "bytes32"
        }
      ],
      "name": "RoleAdminChanged",
      "type": "event"
    },
    {
      "anonymous": false,
      "inputs": [
        {
          "indexed": true,
          "internalType": "bytes32",
          "name": "role",
          "type": "bytes32"
        },
        {
          "indexed": true,
          "internalType": "address",
          "name": "account",
          "type": "address"
        },
        {
          "indexed": true,
          "internalType": "address",
          "name": "sender",
          "type": "address"
        }
      ],
      "name": "RoleGranted",
      "type": "event"
    },
    {
      "anonymous": false,
      "inputs": [
        {
          "indexed": true,
          "internalType": "bytes32",
          "name": "role",
          "type": "bytes32"
        },
        {
          "indexed": true,
          "internalType": "address",
          "name": "account",
          "type": "address"
        },
        {
          "indexed": true,
          "internalType": "address",
          "name": "sender",
          "type": "address"
        }
      ],
      "name": "RoleRevoked",
      "type": "event"
    },
    {
      "anonymous": false,
      "inputs": [
        {
          "indexed": false,
          "internalType": "string",
          "name": "fileHash",
          "type": "string"
        },
        {
          "indexed": true,
          "internalType": "address",
          "name": "authority",
          "type": "address"
        },
        {
          "indexed": false,
          "internalType": "bool",
          "name": "approved",
          "type": "bool"
        },
        {
          "indexed": false,
          "internalType": "uint256",
          "name": "timestamp",
          "type": "uint256"
        }
      ],
      "name": "VoteCast",
      "type": "event"
    },
    {
      "inputs": [],
      "name": "AUTHORITY_ROLE",
      "outputs": [
        {
          "internalType": "bytes32",
          "name": "",
          "type": "bytes32"
        }
      ],
      "stateMutability": "view",
      "type": "function"
    },
    {
      "inputs": [],
      "name": "DEFAULT_ADMIN_ROLE",
      "outputs": [
        {
          "internalType": "bytes32",
          "name": "",
          "type": "bytes32"
        }
      ],
      "stateMutability": "view",
      "type": "function"
    },
    {
      "inputs": [],
      "name": "UPLOADER_ROLE",
      "outputs": [
        {
          "internalType": "bytes32",
          "name": "",
          "type": "bytes32"
        }
      ],
      "stateMutability": "view",
      "type": "function"
    },
    {
      "inputs": [
        {
          "internalType": "string",
          "name": "_fileHash",
          "type": "string"
        },
        {
          "internalType": "string",
          "name": "_authorityId",
          "type": "string"
        },
        {
          "internalType": "bool",
          "name": "_approve",
          "type": "bool"
        },
        {
          "internalType": "string",
          "name": "_reason",
          "type": "string"
        }
      ],
      "name": "castVote",
      "outputs": [],
      "stateMutability": "nonpayable",
      "type": "function"
    },
    {
      "inputs": [],
      "name": "evidenceToken",
      "outputs": [
        {
          "internalType": "contract IEvidenceToken",
          "name": "",
          "type": "address"
        }
      ],
      "stateMutability": "view",
      "type": "function"
    },
    {
      "inputs": [],
      "name": "getAllPendingEvidence",
      "outputs": [
        {
          "internalType": "string[]",
          "name": "",
          "type": "string[]"
        }
      ],
      "stateMutability": "view",
      "type": "function"
    },
    {
      "inputs": [
        {
          "internalType": "string",
          "name": "_fileHash",
          "type": "string"
        }
      ],
      "name": "getEvidence",
      "outputs": [
        {
          "internalType": "string",
          "name": "fileName",
          "type": "string"
        },
        {
          "internalType": "string",
          "name": "ipfsCID",
          "type": "string"
        },
        {
          "internalType": "address",
          "name": "uploadedBy",
          "type": "address"
        },
        {
          "internalType": "uint256",
          "name": "timestamp",
          "type": "uint256"
        },
        {
          "internalType": "string",
          "name": "description",
          "type": "string"
        }
      ],
      "stateMutability": "view",
      "type": "function"
    },
    {
      "inputs": [],
      "name": "getEvidenceCount",
      "outputs": [
        {
          "internalType": "uint256",
          "name": "",
          "type": "uint256"
        }
      ],
      "stateMutability": "view",
      "type": "function"
    },
    {
      "inputs": [
        {
          "internalType": "uint256",
          "name": "start",
          "type": "uint256"
        },
        {
          "internalType": "uint256",
          "name": "count",
          "type": "uint256"
        }
      ],
      "name": "getHashesPaginated",
      "outputs": [
        {
          "internalType": "string[]",
          "name": "",
          "type": "string[]"
        }
      ],
      "stateMutability": "view",
      "type": "function"
    },
    {
      "inputs": [
        {
          "internalType": "bytes32",
          "name": "role",
          "type": "bytes32"
        }
      ],
      "name": "getRoleAdmin",
      "outputs": [
        {
          "internalType": "bytes32",
          "name": "",
          "type": "bytes32"
        }
      ],
      "stateMutability": "view",
      "type": "function"
    },
    {
      "inputs": [
        {
          "internalType": "string",
          "name": "_fileHash",
          "type": "string"
        }
      ],
      "name": "getVotingStatus",
      "outputs": [
        {
          "internalType": "uint256",
          "name": "approvalCount",
          "type": "uint256"
        },
        {
          "internalType": "uint256",
          "name": "rejectionCount",
          "type": "uint256"
        },
        {
          "internalType": "enum EvidenceLocker.EvidenceStatus",
          "name": "status",
          "type": "uint8"
        },
        {
          "internalType": "string",
          "name": "rejectionReason",
          "type": "string"
        },
        {
          "internalType": "address[]",
          "name": "approvedBy",
          "type": "address[]"
        },
        {
          "internalType": "address[]",
          "name": "rejectedBy",
          "type": "address[]"
        }
      ],
      "stateMutability": "view",
      "type": "function"
    },
    {
      "inputs": [
        {
          "internalType": "address",
          "name": "account",
          "type": "address"
        }
      ],
      "name": "grantAuthorityRole",
      "outputs": [],
      "stateMutability": "nonpayable",
      "type": "function"
    },
    {
      "inputs": [
        {
          "internalType": "bytes32",
          "name": "role",
          "type": "bytes32"
        },
        {
          "internalType": "address",
          "name": "account",
          "type": "address"
        }
      ],
      "name": "grantRole",
      "outputs": [],
      "stateMutability": "nonpayable",
      "type": "function"
    },
    {
      "inputs": [
        {
          "internalType": "bytes32",
          "name": "role",
          "type": "bytes32"
        },
        {
          "internalType": "address",
          "name": "account",
          "type": "address"
        }
      ],
      "name": "hasRole",
      "outputs": [
        {
          "internalType": "bool",
          "name": "",
          "type": "bool"
        }
      ],
      "stateMutability": "view",
      "type": "function"
    },
    {
      "inputs": [
        {
          "internalType": "string",
          "name": "_fileHash",
          "type": "string"
        },
        {
          "internalType": "string",
          "name": "_authorityId",
          "type": "string"
        }
      ],
      "name": "hasVoted",
      "outputs": [
        {
          "internalType": "bool",
          "name": "",
          "type": "bool"
        }
      ],
      "stateMutability": "view",
      "type": "function"
    },
    {
      "inputs": [
        {
          "internalType": "bytes32",
          "name": "role",
          "type": "bytes32"
        },
        {
          "internalType": "address",
          "name": "callerConfirmation",
          "type": "address"
        }
      ],
      "name": "renounceRole",
      "outputs": [],
      "stateMutability": "nonpayable",
      "type": "function"
    },
    {
      "inputs": [],
      "name": "requiredApprovals",
      "outputs": [
        {
          "internalType": "uint256",
          "name": "",
          "type": "uint256"
        }
      ],
      "stateMutability": "view",
      "type": "function"
    },
    {
      "inputs": [],
      "name": "requiredRejections",
      "outputs": [
        {
          "internalType": "uint256",
          "name": "",
          "type": "uint256"
        }
      ],
      "stateMutability": "view",
      "type": "function"
    },
    {
      "inputs": [
        {
          "internalType": "address",
          "name": "account",
          "type": "address"
        }
      ],
      "name": "revokeAuthorityRole",
      "outputs": [],
      "stateMutability": "nonpayable",
      "type": "function"
    },
    {
      "inputs": [
        {
          "internalType": "bytes32",
          "name": "role",
          "type": "bytes32"
        },
        {
          "internalType": "address",
          "name": "account",
          "type": "address"
        }
      ],
      "name": "revokeRole",
      "outputs": [],
      "stateMutability": "nonpayable",
      "type": "function"
    },
    {
      "inputs": [
        {
          "internalType": "uint256",
          "name": "_approvals",
          "type": "uint256"
        },
        {
          "internalType": "uint256",
          "name": "_rejections",
          "type": "uint256"
        }
      ],
      "name": "setConsensusThreshold",
      "outputs": [],
      "stateMutability": "nonpayable",
      "type": "function"
    },
    {
      "inputs": [
        {
          "internalType": "string",
          "name": "_fileName",
          "type": "string"
        },
        {
          "internalType": "string",
          "name": "_fileHash",
          "type": "string"
        },
        {
          "internalType": "string",
          "name": "_ipfsCID",
          "type": "string"
        },
        {
          "internalType": "string",
          "name": "_description",
          "type": "string"
        }
      ],
      "name": "storeEvidence",
      "outputs": [],
      "stateMutability": "nonpayable",
      "type": "function"
    },
    {
      "inputs": [
        {
          "internalType": "bytes4",
          "name": "interfaceId",
          "type": "bytes4"
        }
      ],
      "name": "supportsInterface",
      "outputs": [
        {
          "internalType": "bool",
          "name": "",
          "type": "bool"
        }
      ],
      "stateMutability": "view",
      "type": "function"
    },
    {
      "inputs": [
        {
          "internalType": "string",
          "name": "_fileHash",
          "type": "string"
        }
      ],
      "name": "verifyEvidence",
      "outputs": [
        {
          "internalType": "bool",
          "name": "",
          "type": "bool"
        }
      ],
      "stateMutability": "view",
      "type": "function"
    }
  ],
  "bytecode": "0x60806040526002805560016003553480156200001a57600080fd5b50604051620038eb380380620038eb83398181016040528101906200004091906200027d565b620000556000801b336200009e60201b60201c565b5080600160006101000a81548173ffffffffffffffffffffffffffffffffffffffff021916908373ffffffffffffffffffffffffffffffffffffffff16021790555050620002af565b6000620000b28383620001a160201b60201c565b6200019657600160008085815260200190815260200160002060000160008473ffffffffffffffffffffffffffffffffffffffff1673ffffffffffffffffffffffffffffffffffffffff16815260200190815260200160002060006101000a81548160ff021916908315150217905550620001326200020b60201b60201c565b73ffffffffffffffffffffffffffffffffffffffff168273ffffffffffffffffffffffffffffffffffffffff16847f2f8788117e7eff1d82e926ec794901d17c78024a50270940304540a733656f0d60405160405180910390a4600190506200019b565b600090505b92915050565b600080600084815260200190815260200160002060000160008373ffffffffffffffffffffffffffffffffffffffff1673ffffffffffffffffffffffffffffffffffffffff16815260200190815260200160002060009054906101000a900460ff16905092915050565b600033905090565b600080fd5b600073ffffffffffffffffffffffffffffffffffffffff82169050919050565b6000620002458262000218565b9050919050565b620002578162000238565b81146200026357600080fd5b50565b60008151905062000277816200024c565b92915050565b60006020828403121562000296576200029562000213565b5b6000620002a68482850162000266565b91505092915050565b61362c80620002bf6000396000f3fe608060405234801561001057600080fd5b50600436106101585760003560e01c80637e34df8c116100c3578063a51e06371161007c578063a51e0637146103f2578063b16c6ee714610410578063b8d4448714610444578063d32db21814610462578063d547741f1461047e578063d5fd7d631461049a57610158565b80637e34df8c1461031c5780638dcc11ef1461033a57806391d148541461035657806399c1aadc14610386578063a217fddf146103a4578063a323f3d3146103c257610158565b806336568abe1161011557806336568abe146102485780634a3fba0e146102645780634a71d9121461028257806361cc07661461029e57806366a038bb146102bc5780636f13f95a146102ec57610158565b806301ffc9a71461015d57806318cd58791461018d5780631c645c41146101c2578063248a9ca3146101e05780632f2ff15d146102105780633253d0fd1461022c575b600080fd5b610177600480360381019061017291906124cd565b6104b6565b6040516101849190612515565b60405180910390f35b6101a760048036038101906101a29190612676565b610530565b6040516101b9969594939291906128be565b60405180910390f35b6101ca6107c7565b6040516101d79190612993565b60405180910390f35b6101fa60048036038101906101f591906129e4565b6107ed565b6040516102079190612a20565b60405180910390f35b61022a60048036038101906102259190612a67565b61080c565b005b61024660048036038101906102419190612ad3565b61082e565b005b610262600480360381019061025d9190612a67565b6108cd565b005b61026c610948565b6040516102799190612a20565b60405180910390f35b61029c60048036038101906102979190612b3f565b61096c565b005b6102a6610f05565b6040516102b39190612a20565b60405180910390f35b6102d660048036038101906102d19190612bfa565b610f29565b6040516102e39190612515565b60405180910390f35b61030660048036038101906103019190612676565b610f7c565b6040516103139190612515565b60405180910390f35b610324611008565b6040516103319190612d7e565b60405180910390f35b610354600480360381019061034f9190612da0565b611335565b005b610370600480360381019061036b9190612a67565b6117f9565b60405161037d9190612515565b60405180910390f35b61038e611863565b60405161039b9190612e77565b60405180910390f35b6103ac611869565b6040516103b99190612a20565b60405180910390f35b6103dc60048036038101906103d79190612ad3565b611870565b6040516103e99190612d7e565b60405180910390f35b6103fa611a02565b6040516104079190612e77565b60405180910390f35b61042a60048036038101906104259190612676565b611a08565b60405161043b959493929190612ea1565b60405180910390f35b61044c61205b565b6040516104599190612e77565b60405180910390f35b61047c60048036038101906104779190612f09565b612068565b005b61049860048036038101906104939190612a67565b6120a3565b005b6104b460048036038101906104af9190612f09565b6120c5565b005b60007f7965db0b000000000000000000000000000000000000000000000000000000007bffffffffffffffffffffffffffffffffffffffffffffffffffffffff1916827bffffffffffffffffffffffffffffffffffffffffffffffffffffffff19161480610529575061052882612100565b5b9050919050565b600080600060608060606000878051906020012090506004600082815260200190815260200160002060050160059054906101000a900460ff166105ab57876040517fe9d832820000000000000000000000000000000000000000000000000000000081526004016105a29190612f36565b60405180910390fd5b60006004600083815260200190815260200160002090508060050160009054906101000a900461ffff168160050160029054906101000a900461ffff168260050160049054906101000a900460ff168360070184600801856009018561ffff1695508461ffff16945082805461062090612f87565b80601f016020809104026020016040519081016040528092919081815260200182805461064c90612f87565b80156106995780601f1061066e57610100808354040283529160200191610699565b820191906000526020600020905b81548152906001019060200180831161067c57829003601f168201915b505050505092508180548060200260200160405190810160405280929190818152602001828054801561072157602002820191906000526020600020905b8160009054906101000a900473ffffffffffffffffffffffffffffffffffffffff1673ffffffffffffffffffffffffffffffffffffffff16815260200190600101908083116106d7575b50505050509150808054806020026020016040519081016040528092919081815260200182805480156107a957602002820191906000526020600020905b8160009054906101000a900473ffffffffffffffffffffffffffffffffffffffff1673ffffffffffffffffffffffffffffffffffffffff168152602001906001019080831161075f575b50505050509050975097509750975097509750505091939550919395565b600160009054906101000a900473ffffffffffffffffffffffffffffffffffffffff1681565b6000806000838152602001908152602001600020600101549050919050565b610815826107ed565b61081e8161216a565b610828838361217e565b50505050565b6000801b61083b8161216a565b600083148061084a5750600082145b15610881576040517ff30c208a00000000000000000000000000000000000000000000000000000000815260040160405180910390fd5b82600281905550816003819055507f05b3feb96408c70a384e932c1f049e77e543603df0e52b58b83d7a3e7620670083836040516108c0929190612fb8565b60405180910390a1505050565b6108d561226f565b73ffffffffffffffffffffffffffffffffffffffff168173ffffffffffffffffffffffffffffffffffffffff1614610939576040517f6697b23200000000000000000000000000000000000000000000000000000000815260040160405180910390fd5b6109438282612277565b505050565b7fd565e3fc066df348a5cbc05a8d6323e00552838041cea2d84cc59876ba37735d81565b7fd565e3fc066df348a5cbc05a8d6323e00552838041cea2d84cc59876ba37735d6109968161216a565b6000858051906020012090506004600082815260200190815260200160002060050160059054906101000a900460ff16610a0757856040517fe9d832820000000000000000000000000000000000000000000000000000000081526004016109fe9190612f36565b60405180910390fd5b6006600082815260200190815260200160002085604051610a28919061301d565b908152602001604051809103902060009054906101000a900460ff1615610a885733866040517fc2328863000000000000000000000000000000000000000000000000000000008152600401610a7f929190613034565b60405180910390fd5b600060046000838152602001908152602001600020905060016006600084815260200190815260200160002087604051610ac2919061301d565b908152602001604051809103902060006101000a81548160ff0219169083151502179055508415610b8e5780600801339080600181540180825580915050600190039060005260206000200160009091909190916101000a81548173ffffffffffffffffffffffffffffffffffffffff021916908373ffffffffffffffffffffffffffffffffffffffff16021790555080600501600081819054906101000a900461ffff168092919060010191906101000a81548161ffff021916908361ffff16021790555050610c3d565b80600901339080600181540180825580915050600190039060005260206000200160009091909190916101000a81548173ffffffffffffffffffffffffffffffffffffffff021916908373ffffffffffffffffffffffffffffffffffffffff16021790555083816007019081610c049190613206565b5080600501600281819054906101000a900461ffff168092919060010191906101000a81548161ffff021916908361ffff160217905550505b428160040160106101000a8154816fffffffffffffffffffffffffffffffff02191690836fffffffffffffffffffffffffffffffff1602179055503373ffffffffffffffffffffffffffffffffffffffff167f8f939c0e8da82099bc9be68995da582362fa8d3032227846326c305b0f2d2e37888742604051610cc2939291906132d8565b60405180910390a26002548160050160009054906101000a900461ffff1661ffff1610158015610d28575060026003811115610d0157610d006126d8565b5b8160050160049054906101000a900460ff166003811115610d2557610d246126d8565b5b14155b15610dac5760028160050160046101000a81548160ff02191690836003811115610d5557610d546126d8565b5b02179055507f82af08a251062fb301974b7ba1af9929393e54f47a77ce262239cee29bdb6466878260050160009054906101000a900461ffff1642604051610d9f93929190613355565b60405180910390a1610efc565b6003548160050160029054906101000a900461ffff1661ffff1610158015610e095750600380811115610de257610de16126d8565b5b8160050160049054906101000a900460ff166003811115610e0657610e056126d8565b5b14155b15610e8f5760038160050160046101000a81548160ff02191690836003811115610e3657610e356126d8565b5b02179055507f6eb0270f26abecfd931edc16a4e9ff7eb4f7074d3718899a4fe9d411256ceb3d878260050160029054906101000a900461ffff168642604051610e829493929190613393565b60405180910390a1610efb565b60006003811115610ea357610ea26126d8565b5b8160050160049054906101000a900460ff166003811115610ec757610ec66126d8565b5b03610efa5760018160050160046101000a81548160ff02191690836003811115610ef457610ef36126d8565b5b02179055505b5b5b50505050505050565b7f922390b27f65d828a1f7695b2eaae33fd0be87496792afddba1d25446a8fcb9181565b600080838051906020012090506006600082815260200190815260200160002083604051610f57919061301d565b908152602001604051809103902060009054906101000a900460ff1691505092915050565b600080828051906020012090506004600082815260200190815260200160002060050160059054906101000a900460ff168015611000575060026003811115610fc857610fc76126d8565b5b6004600083815260200190815260200160002060050160049054906101000a900460ff166003811115610ffe57610ffd6126d8565b5b145b915050919050565b60607fd565e3fc066df348a5cbc05a8d6323e00552838041cea2d84cc59876ba37735d6110348161216a565b6000805b6005805490508110156111275760006005828154811061105b5761105a6133e6565b5b906000526020600020015490506000600381111561107c5761107b6126d8565b5b6004600083815260200190815260200160002060050160049054906101000a900460ff1660038111156110b2576110b16126d8565b5b14806111055750600160038111156110cd576110cc6126d8565b5b6004600083815260200190815260200160002060050160049054906101000a900460ff166003811115611103576111026126d8565b5b145b1561111957828061111590613444565b9350505b818060010192505050611038565b5060008167ffffffffffffffff8111156111445761114361254b565b5b60405190808252806020026020018201604052801561117757816020015b60608152602001906001900390816111625790505b5090506000805b60058054905081101561132a576000600582815481106111a1576111a06133e6565b5b90600052602060002001549050600060038111156111c2576111c16126d8565b5b6004600083815260200190815260200160002060050160049054906101000a900460ff1660038111156111f8576111f76126d8565b5b148061124b575060016003811115611213576112126126d8565b5b6004600083815260200190815260200160002060050160049054906101000a900460ff166003811115611249576112486126d8565b5b145b1561131c5760046000828152602001908152602001600020600101805461127190612f87565b80601f016020809104026020016040519081016040528092919081815260200182805461129d90612f87565b80156112ea5780601f106112bf576101008083540402835291602001916112ea565b820191906000526020600020905b8154815290600101906020018083116112cd57829003601f168201915b5050505050848481518110611302576113016133e6565b5b6020026020010181905250828061131890613444565b9350505b81806001019250505061117e565b508194505050505090565b6000838051906020012090506004600082815260200190815260200160002060050160059054906101000a900460ff16156113a757836040517f81378a7600000000000000000000000000000000000000000000000000000000815260040161139e9190612f36565b60405180910390fd5b600160009054906101000a900473ffffffffffffffffffffffffffffffffffffffff1673ffffffffffffffffffffffffffffffffffffffff1663f5439d3c33678ac7230489e800006040518363ffffffff1660e01b815260040161140c9291906134c7565b600060405180830381600087803b15801561142657600080fd5b505af115801561143a573d6000803e3d6000fd5b505050506060604051806101c001604052808781526020018681526020018581526020013373ffffffffffffffffffffffffffffffffffffffff168152602001426fffffffffffffffffffffffffffffffff168152602001426fffffffffffffffffffffffffffffffff168152602001600061ffff168152602001600061ffff168152602001600060038111156114d4576114d36126d8565b5b81526020016001151581526020018481526020016040518060200160405280600081525081526020018281526020018281525060046000848152602001908152602001600020600082015181600001908161152f9190613206565b5060208201518160010190816115459190613206565b50604082015181600201908161155b9190613206565b5060608201518160030160006101000a81548173ffffffffffffffffffffffffffffffffffffffff021916908373ffffffffffffffffffffffffffffffffffffffff16021790555060808201518160040160006101000a8154816fffffffffffffffffffffffffffffffff02191690836fffffffffffffffffffffffffffffffff16021790555060a08201518160040160106101000a8154816fffffffffffffffffffffffffffffffff02191690836fffffffffffffffffffffffffffffffff16021790555060c08201518160050160006101000a81548161ffff021916908361ffff16021790555060e08201518160050160026101000a81548161ffff021916908361ffff1602179055506101008201518160050160046101000a81548160ff02191690836003811115611693576116926126d8565b5b02179055506101208201518160050160056101000a81548160ff0219169083151502179055506101408201518160060190816116cf9190613206565b506101608201518160070190816116e69190613206565b506101808201518160080190805190602001906117049291906123ba565b506101a08201518160090190805190602001906117229291906123ba565b5090505060058290806001815401808255809150506001900390600052602060002001600090919091909150553373ffffffffffffffffffffffffffffffffffffffff167f94f6e9bb96481c6865680f687755925c7a69b54b9b99c6229080c0c2850e36e8868642604051611799939291906134f0565b60405180910390a23373ffffffffffffffffffffffffffffffffffffffff167f4487f3398c99757094c9ac1dad87a3648d90241c54f4b1afae94e705e26a888986426040516117e9929190613535565b60405180910390a2505050505050565b600080600084815260200190815260200160002060000160008373ffffffffffffffffffffffffffffffffffffffff1673ffffffffffffffffffffffffffffffffffffffff16815260200190815260200160002060009054906101000a900460ff16905092915050565b60025481565b6000801b81565b6060600082846118809190613565565b90506005805490508111156118985760058054905090505b600084826118a69190613599565b67ffffffffffffffff8111156118bf576118be61254b565b5b6040519080825280602002602001820160405280156118f257816020015b60608152602001906001900390816118dd5790505b50905060008590505b828110156119f657600460006005838154811061191b5761191a6133e6565b5b90600052602060002001548152602001908152602001600020600101805461194290612f87565b80601f016020809104026020016040519081016040528092919081815260200182805461196e90612f87565b80156119bb5780601f10611990576101008083540402835291602001916119bb565b820191906000526020600020905b81548152906001019060200180831161199e57829003601f168201915b50505050508287836119cd9190613599565b815181106119de576119dd6133e6565b5b602002602001018190525080806001019150506118fb565b50809250505092915050565b60035481565b60608060008060606000868051906020012090506004600082815260200190815260200160002060050160059054906101000a900460ff16611a8157866040517fe9d83282000000000000000000000000000000000000000000000000000000008152600401611a789190612f36565b60405180910390fd5b600060046000838152602001908152602001600020604051806101c0016040529081600082018054611ab290612f87565b80601f0160208091040260200160405190810160405280929190818152602001828054611ade90612f87565b8015611b2b5780601f10611b0057610100808354040283529160200191611b2b565b820191906000526020600020905b815481529060010190602001808311611b0e57829003601f168201915b50505050508152602001600182018054611b4490612f87565b80601f0160208091040260200160405190810160405280929190818152602001828054611b7090612f87565b8015611bbd5780601f10611b9257610100808354040283529160200191611bbd565b820191906000526020600020905b815481529060010190602001808311611ba057829003601f168201915b50505050508152602001600282018054611bd690612f87565b80601f0160208091040260200160405190810160405280929190818152602001828054611c0290612f87565b8015611c4f5780601f10611c2457610100808354040283529160200191611c4f565b820191906000526020600020905b815481529060010190602001808311611c3257829003601f168201915b505050505081526020016003820160009054906101000a900473ffffffffffffffffffffffffffffffffffffffff1673ffffffffffffffffffffffffffffffffffffffff1673ffffffffffffffffffffffffffffffffffffffff1681526020016004820160009054906101000a90046fffffffffffffffffffffffffffffffff166fffffffffffffffffffffffffffffffff166fffffffffffffffffffffffffffffffff1681526020016004820160109054906101000a90046fffffffffffffffffffffffffffffffff166fffffffffffffffffffffffffffffffff166fffffffffffffffffffffffffffffffff1681526020016005820160009054906101000a900461ffff1661ffff1661ffff1681526020016005820160029054906101000a900461ffff1661ffff1661ffff1681526020016005820160049054906101000a900460ff166003811115611da757611da66126d8565b5b6003811115611db957611db86126d8565b5b81526020016005820160059054906101000a900460ff16151515158152602001600682018054611de890612f87565b80601f0160208091040260200160405190810160405280929190818152602001828054611e1490612f87565b8015611e615780601f10611e3657610100808354040283529160200191611e61565b820191906000526020600020905b815481529060010190602001808311611e4457829003601f168201915b50505050508152602001600782018054611e7a90612f87565b80601f0160208091040260200160405190810160405280929190818152602001828054611ea690612f87565b8015611ef35780601f10611ec857610100808354040283529160200191611ef3565b820191906000526020600020905b815481529060010190602001808311611ed657829003601f168201915b5050505050815260200160088201805480602002602001604051908101604052809291908181526020018280548015611f8157602002820191906000526020600020905b8160009054906101000a900473ffffffffffffffffffffffffffffffffffffffff1673ffffffffffffffffffffffffffffffffffffffff1681526020019060010190808311611f37575b505050505081526020016009820180548060200260200160405190810160405280929190818152602001828054801561200f57602002820191906000526020600020905b8160009054906101000a900473ffffffffffffffffffffffffffffffffffffffff1673ffffffffffffffffffffffffffffffffffffffff1681526020019060010190808311611fc5575b505050505081525050905080600001518160400151826060015183608001516fffffffffffffffffffffffffffffffff1684610140015196509650965096509650505091939590929450565b6000600580549050905090565b6000801b6120758161216a565b61209f7fd565e3fc066df348a5cbc05a8d6323e00552838041cea2d84cc59876ba37735d8361080c565b5050565b6120ac826107ed565b6120b58161216a565b6120bf8383612277565b50505050565b6000801b6120d28161216a565b6120fc7fd565e3fc066df348a5cbc05a8d6323e00552838041cea2d84cc59876ba37735d836120a3565b5050565b60007f01ffc9a7000000000000000000000000000000000000000000000000000000007bffffffffffffffffffffffffffffffffffffffffffffffffffffffff1916827bffffffffffffffffffffffffffffffffffffffffffffffffffffffff1916149050919050565b61217b8161217661226f565b612369565b50565b600061218a83836117f9565b61226457600160008085815260200190815260200160002060000160008473ffffffffffffffffffffffffffffffffffffffff1673ffffffffffffffffffffffffffffffffffffffff16815260200190815260200160002060006101000a81548160ff02191690831515021790555061220161226f565b73ffffffffffffffffffffffffffffffffffffffff168273ffffffffffffffffffffffffffffffffffffffff16847f2f8788117e7eff1d82e926ec794901d17c78024a50270940304540a733656f0d60405160405180910390a460019050612269565b600090505b92915050565b600033905090565b600061228383836117f9565b1561235e57600080600085815260200190815260200160002060000160008473ffffffffffffffffffffffffffffffffffffffff1673ffffffffffffffffffffffffffffffffffffffff16815260200190815260200160002060006101000a81548160ff0219169083151502179055506122fb61226f565b73ffffffffffffffffffffffffffffffffffffffff168273ffffffffffffffffffffffffffffffffffffffff16847ff6391f5c32d9c69d2a47ea670b442974b53935d1edc7fd64eb21e047a839171b60405160405180910390a460019050612363565b600090505b92915050565b61237382826117f9565b6123b65780826040517fe2517d3f0000000000000000000000000000000000000000000000000000000081526004016123ad9291906135cd565b60405180910390fd5b5050565b828054828255906000526020600020908101928215612433579160200282015b828111156124325782518260006101000a81548173ffffffffffffffffffffffffffffffffffffffff021916908373ffffffffffffffffffffffffffffffffffffffff160217905550916020019190600101906123da565b5b5090506124409190612444565b5090565b5b8082111561245d576000816000905550600101612445565b5090565b6000604051905090565b600080fd5b600080fd5b60007fffffffff0000000000000000000000000000000000000000000000000000000082169050919050565b6124aa81612475565b81146124b557600080fd5b50565b6000813590506124c7816124a1565b92915050565b6000602082840312156124e3576124e261246b565b5b60006124f1848285016124b8565b91505092915050565b60008115159050919050565b61250f816124fa565b82525050565b600060208201905061252a6000830184612506565b92915050565b600080fd5b600080fd5b6000601f19601f8301169050919050565b7f4e487b7100000000000000000000000000000000000000000000000000000000600052604160045260246000fd5b6125838261253a565b810181811067ffffffffffffffff821117156125a2576125a161254b565b5b80604052505050565b60006125b5612461565b90506125c1828261257a565b919050565b600067ffffffffffffffff8211156125e1576125e061254b565b5b6125ea8261253a565b9050602081019050919050565b82818337600083830152505050565b6000612619612614846125c6565b6125ab565b90508281526020810184848401111561263557612634612535565b5b6126408482856125f7565b509392505050565b600082601f83011261265d5761265c612530565b5b813561266d848260208601612606565b91505092915050565b60006020828403121561268c5761268b61246b565b5b600082013567ffffffffffffffff8111156126aa576126a9612470565b5b6126b684828501612648565b91505092915050565b6000819050919050565b6126d2816126bf565b82525050565b7f4e487b7100000000000000000000000000000000000000000000000000000000600052602160045260246000fd5b60048110612718576127176126d8565b5b50565b600081905061272982612707565b919050565b60006127398261271b565b9050919050565b6127498161272e565b82525050565b600081519050919050565b600082825260208201905092915050565b60005b8381101561278957808201518184015260208101905061276e565b60008484015250505050565b60006127a08261274f565b6127aa818561275a565b93506127ba81856020860161276b565b6127c38161253a565b840191505092915050565b600081519050919050565b600082825260208201905092915050565b6000819050602082019050919050565b600073ffffffffffffffffffffffffffffffffffffffff82169050919050565b6000612825826127fa565b9050919050565b6128358161281a565b82525050565b6000612847838361282c565b60208301905092915050565b6000602082019050919050565b600061286b826127ce565b61287581856127d9565b9350612880836127ea565b8060005b838110156128b1578151612898888261283b565b97506128a383612853565b925050600181019050612884565b5085935050505092915050565b600060c0820190506128d360008301896126c9565b6128e060208301886126c9565b6128ed6040830187612740565b81810360608301526128ff8186612795565b905081810360808301526129138185612860565b905081810360a08301526129278184612860565b9050979650505050505050565b6000819050919050565b600061295961295461294f846127fa565b612934565b6127fa565b9050919050565b600061296b8261293e565b9050919050565b600061297d82612960565b9050919050565b61298d81612972565b82525050565b60006020820190506129a86000830184612984565b92915050565b6000819050919050565b6129c1816129ae565b81146129cc57600080fd5b50565b6000813590506129de816129b8565b92915050565b6000602082840312156129fa576129f961246b565b5b6000612a08848285016129cf565b91505092915050565b612a1a816129ae565b82525050565b6000602082019050612a356000830184612a11565b92915050565b612a448161281a565b8114612a4f57600080fd5b50565b600081359050612a6181612a3b565b92915050565b60008060408385031215612a7e57612a7d61246b565b5b6000612a8c858286016129cf565b9250506020612a9d85828601612a52565b9150509250929050565b612ab0816126bf565b8114612abb57600080fd5b50565b600081359050612acd81612aa7565b92915050565b60008060408385031215612aea57612ae961246b565b5b6000612af885828601612abe565b9250506020612b0985828601612abe565b9150509250929050565b612b1c816124fa565b8114612b2757600080fd5b50565b600081359050612b3981612b13565b92915050565b60008060008060808587031215612b5957612b5861246b565b5b600085013567ffffffffffffffff811115612b7757612b76612470565b5b612b8387828801612648565b945050602085013567ffffffffffffffff811115612ba457612ba3612470565b5b612bb087828801612648565b9350506040612bc187828801612b2a565b925050606085013567ffffffffffffffff811115612be257612be1612470565b5b612bee87828801612648565b91505092959194509250565b60008060408385031215612c1157612c1061246b565b5b600083013567ffffffffffffffff811115612c2f57612c2e612470565b5b612c3b85828601612648565b925050602083013567ffffffffffffffff811115612c5c57612c5b612470565b5b612c6885828601612648565b9150509250929050565b600081519050919050565b600082825260208201905092915050565b6000819050602082019050919050565b600082825260208201905092915050565b6000612cba8261274f565b612cc48185612c9e565b9350612cd481856020860161276b565b612cdd8161253a565b840191505092915050565b6000612cf48383612caf565b905092915050565b6000602082019050919050565b6000612d1482612c72565b612d1e8185612c7d565b935083602082028501612d3085612c8e565b8060005b85811015612d6c5784840389528151612d4d8582612ce8565b9450612d5883612cfc565b925060208a01995050600181019050612d34565b50829750879550505050505092915050565b60006020820190508181036000830152612d988184612d09565b905092915050565b60008060008060808587031215612dba57612db961246b565b5b600085013567ffffffffffffffff811115612dd857612dd7612470565b5b612de487828801612648565b945050602085013567ffffffffffffffff811115612e0557612e04612470565b5b612e1187828801612648565b935050604085013567ffffffffffffffff811115612e3257612e31612470565b5b612e3e87828801612648565b925050606085013567ffffffffffffffff811115612e5f57612e5e612470565b5b612e6b87828801612648565b91505092959194509250565b6000602082019050612e8c60008301846126c9565b92915050565b612e9b8161281a565b82525050565b600060a0820190508181036000830152612ebb8188612795565b90508181036020830152612ecf8187612795565b9050612ede6040830186612e92565b612eeb60608301856126c9565b8181036080830152612efd8184612795565b90509695505050505050565b600060208284031215612f1f57612f1e61246b565b5b6000612f2d84828501612a52565b91505092915050565b60006020820190508181036000830152612f508184612795565b905092915050565b7f4e487b7100000000000000000000000000000000000000000000000000000000600052602260045260246000fd5b60006002820490506001821680612f9f57607f821691505b602082108103612fb257612fb1612f58565b5b50919050565b6000604082019050612fcd60008301856126c9565b612fda60208301846126c9565b9392505050565b600081905092915050565b6000612ff78261274f565b6130018185612fe1565b935061301181856020860161276b565b80840191505092915050565b60006130298284612fec565b915081905092915050565b60006040820190506130496000830185612e92565b818103602083015261305b8184612795565b90509392505050565b60008190508160005260206000209050919050565b60006020601f8301049050919050565b600082821b905092915050565b6000600883026130c67fffffffffffffffffffffffffffffffffffffffffffffffffffffffffffffffff82613089565b6130d08683613089565b95508019841693508086168417925050509392505050565b60006131036130fe6130f9846126bf565b612934565b6126bf565b9050919050565b6000819050919050565b61311d836130e8565b6131316131298261310a565b848454613096565b825550505050565b600090565b613146613139565b613151818484613114565b505050565b5b818110156131755761316a60008261313e565b600181019050613157565b5050565b601f8211156131ba5761318b81613064565b61319484613079565b810160208510156131a3578190505b6131b76131af85613079565b830182613156565b50505b505050565b600082821c905092915050565b60006131dd600019846008026131bf565b1980831691505092915050565b60006131f683836131cc565b9150826002028217905092915050565b61320f8261274f565b67ffffffffffffffff8111156132285761322761254b565b5b6132328254612f87565b61323d828285613179565b600060209050601f831160018114613270576000841561325e578287015190505b61326885826131ea565b8655506132d0565b601f19841661327e86613064565b60005b828110156132a657848901518255600182019150602085019450602081019050613281565b868310156132c357848901516132bf601f8916826131cc565b8355505b6001600288020188555050505b505050505050565b600060608201905081810360008301526132f28186612795565b90506133016020830185612506565b61330e60408301846126c9565b949350505050565b600061ffff82169050919050565b600061333f61333a61333584613316565b612934565b6126bf565b9050919050565b61334f81613324565b82525050565b6000606082019050818103600083015261336f8186612795565b905061337e6020830185613346565b61338b60408301846126c9565b949350505050565b600060808201905081810360008301526133ad8187612795565b90506133bc6020830186613346565b81810360408301526133ce8185612795565b90506133dd60608301846126c9565b95945050505050565b7f4e487b7100000000000000000000000000000000000000000000000000000000600052603260045260246000fd5b7f4e487b7100000000000000000000000000000000000000000000000000000000600052601160045260246000fd5b600061344f826126bf565b91507fffffffffffffffffffffffffffffffffffffffffffffffffffffffffffffffff820361348157613480613415565b5b600182019050919050565b6000819050919050565b60006134b16134ac6134a78461348c565b612934565b6126bf565b9050919050565b6134c181613496565b82525050565b60006040820190506134dc6000830185612e92565b6134e960208301846134b8565b9392505050565b6000606082019050818103600083015261350a8186612795565b9050818103602083015261351e8185612795565b905061352d60408301846126c9565b949350505050565b6000604082019050818103600083015261354f8185612795565b905061355e60208301846126c9565b9392505050565b6000613570826126bf565b915061357b836126bf565b925082820190508082111561359357613592613415565b5b92915050565b60006135a4826126bf565b91506135af836126bf565b92508282039050818111156135c7576135c6613415565b5b92915050565b60006040820190506135e26000830185612e92565b6135ef6020830184612a11565b939250505056fea2646970667358221220991a4eeee47062480974bbf7208229a04cf1f04e75fbaa22e0518b39f15deec664736f6c63430008140033",
  "linkReferences": {},
  "deployedLinkReferences": {}
}